{
  "_format": "hh-sol-artifact-1",
  "contractName": "SmartRouter",
  "sourceName": "contracts/SmartRouter.sol",
  "abi": [
    {
      "inputs": [
        {
          "internalType": "address",
          "name": "_factoryV2",
          "type": "address"
        },
        {
          "internalType": "address",
          "name": "_deployer",
          "type": "address"
        },
        {
          "internalType": "address",
          "name": "_factoryV3",
          "type": "address"
        },
        {
          "internalType": "address",
          "name": "_positionManager",
          "type": "address"
        },
        {
          "internalType": "address",
          "name": "_stableFactory",
          "type": "address"
        },
        {
          "internalType": "address",
          "name": "_stableInfo",
          "type": "address"
        },
        {
          "internalType": "address",
          "name": "_WETH9",
          "type": "address"
        }
      ],
      "stateMutability": "nonpayable",
      "type": "constructor"
    },
    {
      "anonymous": false,
      "inputs": [
        {
          "indexed": true,
          "internalType": "address",
          "name": "previousOwner",
          "type": "address"
        },
        {
          "indexed": true,
          "internalType": "address",
          "name": "newOwner",
          "type": "address"
        }
      ],
      "name": "OwnershipTransferred",
      "type": "event"
    },
    {
      "anonymous": false,
      "inputs": [
        {
          "indexed": true,
          "internalType": "address",
          "name": "factory",
          "type": "address"
        },
        {
          "indexed": true,
          "internalType": "address",
          "name": "info",
          "type": "address"
        }
      ],
      "name": "SetStableSwap",
      "type": "event"
    },
    {
      "inputs": [],
      "name": "WETH9",
      "outputs": [
        {
          "internalType": "address",
          "name": "",
          "type": "address"
        }
      ],
      "stateMutability": "view",
      "type": "function"
    },
    {
      "inputs": [
        {
          "internalType": "address",
          "name": "token",
          "type": "address"
        }
      ],
      "name": "approveMax",
      "outputs": [],
      "stateMutability": "payable",
      "type": "function"
    },
    {
      "inputs": [
        {
          "internalType": "address",
          "name": "token",
          "type": "address"
        }
      ],
      "name": "approveMaxMinusOne",
      "outputs": [],
      "stateMutability": "payable",
      "type": "function"
    },
    {
      "inputs": [
        {
          "internalType": "address",
          "name": "token",
          "type": "address"
        }
      ],
      "name": "approveZeroThenMax",
      "outputs": [],
      "stateMutability": "payable",
      "type": "function"
    },
    {
      "inputs": [
        {
          "internalType": "address",
          "name": "token",
          "type": "address"
        }
      ],
      "name": "approveZeroThenMaxMinusOne",
      "outputs": [],
      "stateMutability": "payable",
      "type": "function"
    },
    {
      "inputs": [
        {
          "internalType": "bytes",
          "name": "data",
          "type": "bytes"
        }
      ],
      "name": "callPositionManager",
      "outputs": [
        {
          "internalType": "bytes",
          "name": "result",
          "type": "bytes"
        }
      ],
      "stateMutability": "payable",
      "type": "function"
    },
    {
      "inputs": [
        {
          "internalType": "bytes[]",
          "name": "paths",
          "type": "bytes[]"
        },
        {
          "internalType": "uint128[]",
          "name": "amounts",
          "type": "uint128[]"
        },
        {
          "internalType": "uint24",
          "name": "maximumTickDivergence",
          "type": "uint24"
        },
        {
          "internalType": "uint32",
          "name": "secondsAgo",
          "type": "uint32"
        }
      ],
      "name": "checkOracleSlippage",
      "outputs": [],
      "stateMutability": "view",
      "type": "function"
    },
    {
      "inputs": [
        {
          "internalType": "bytes",
          "name": "path",
          "type": "bytes"
        },
        {
          "internalType": "uint24",
          "name": "maximumTickDivergence",
          "type": "uint24"
        },
        {
          "internalType": "uint32",
          "name": "secondsAgo",
          "type": "uint32"
        }
      ],
      "name": "checkOracleSlippage",
      "outputs": [],
      "stateMutability": "view",
      "type": "function"
    },
    {
      "inputs": [],
      "name": "deployer",
      "outputs": [
        {
          "internalType": "address",
          "name": "",
          "type": "address"
        }
      ],
      "stateMutability": "view",
      "type": "function"
    },
    {
      "inputs": [
        {
          "components": [
            {
              "internalType": "bytes",
              "name": "path",
              "type": "bytes"
            },
            {
              "internalType": "address",
              "name": "recipient",
              "type": "address"
            },
            {
              "internalType": "uint256",
              "name": "amountIn",
              "type": "uint256"
            },
            {
              "internalType": "uint256",
              "name": "amountOutMinimum",
              "type": "uint256"
            }
          ],
          "internalType": "struct IV3SwapRouter.ExactInputParams",
          "name": "params",
          "type": "tuple"
        }
      ],
      "name": "exactInput",
      "outputs": [
        {
          "internalType": "uint256",
          "name": "amountOut",
          "type": "uint256"
        }
      ],
      "stateMutability": "payable",
      "type": "function"
    },
    {
      "inputs": [
        {
          "components": [
            {
              "internalType": "address",
              "name": "tokenIn",
              "type": "address"
            },
            {
              "internalType": "address",
              "name": "tokenOut",
              "type": "address"
            },
            {
              "internalType": "uint24",
              "name": "fee",
              "type": "uint24"
            },
            {
              "internalType": "address",
              "name": "recipient",
              "type": "address"
            },
            {
              "internalType": "uint256",
              "name": "amountIn",
              "type": "uint256"
            },
            {
              "internalType": "uint256",
              "name": "amountOutMinimum",
              "type": "uint256"
            },
            {
              "internalType": "uint160",
              "name": "sqrtPriceLimitX96",
              "type": "uint160"
            }
          ],
          "internalType": "struct IV3SwapRouter.ExactInputSingleParams",
          "name": "params",
          "type": "tuple"
        }
      ],
      "name": "exactInputSingle",
      "outputs": [
        {
          "internalType": "uint256",
          "name": "amountOut",
          "type": "uint256"
        }
      ],
      "stateMutability": "payable",
      "type": "function"
    },
    {
      "inputs": [
        {
          "internalType": "address[]",
          "name": "path",
          "type": "address[]"
        },
        {
          "internalType": "uint256[]",
          "name": "flag",
          "type": "uint256[]"
        },
        {
          "internalType": "uint256",
          "name": "amountIn",
          "type": "uint256"
        },
        {
          "internalType": "uint256",
          "name": "amountOutMin",
          "type": "uint256"
        },
        {
          "internalType": "address",
          "name": "to",
          "type": "address"
        }
      ],
      "name": "exactInputStableSwap",
      "outputs": [
        {
          "internalType": "uint256",
          "name": "amountOut",
          "type": "uint256"
        }
      ],
      "stateMutability": "payable",
      "type": "function"
    },
    {
      "inputs": [
        {
          "components": [
            {
              "internalType": "bytes",
              "name": "path",
              "type": "bytes"
            },
            {
              "internalType": "address",
              "name": "recipient",
              "type": "address"
            },
            {
              "internalType": "uint256",
              "name": "amountOut",
              "type": "uint256"
            },
            {
              "internalType": "uint256",
              "name": "amountInMaximum",
              "type": "uint256"
            }
          ],
          "internalType": "struct IV3SwapRouter.ExactOutputParams",
          "name": "params",
          "type": "tuple"
        }
      ],
      "name": "exactOutput",
      "outputs": [
        {
          "internalType": "uint256",
          "name": "amountIn",
          "type": "uint256"
        }
      ],
      "stateMutability": "payable",
      "type": "function"
    },
    {
      "inputs": [
        {
          "components": [
            {
              "internalType": "address",
              "name": "tokenIn",
              "type": "address"
            },
            {
              "internalType": "address",
              "name": "tokenOut",
              "type": "address"
            },
            {
              "internalType": "uint24",
              "name": "fee",
              "type": "uint24"
            },
            {
              "internalType": "address",
              "name": "recipient",
              "type": "address"
            },
            {
              "internalType": "uint256",
              "name": "amountOut",
              "type": "uint256"
            },
            {
              "internalType": "uint256",
              "name": "amountInMaximum",
              "type": "uint256"
            },
            {
              "internalType": "uint160",
              "name": "sqrtPriceLimitX96",
              "type": "uint160"
            }
          ],
          "internalType": "struct IV3SwapRouter.ExactOutputSingleParams",
          "name": "params",
          "type": "tuple"
        }
      ],
      "name": "exactOutputSingle",
      "outputs": [
        {
          "internalType": "uint256",
          "name": "amountIn",
          "type": "uint256"
        }
      ],
      "stateMutability": "payable",
      "type": "function"
    },
    {
      "inputs": [
        {
          "internalType": "address[]",
          "name": "path",
          "type": "address[]"
        },
        {
          "internalType": "uint256[]",
          "name": "flag",
          "type": "uint256[]"
        },
        {
          "internalType": "uint256",
          "name": "amountOut",
          "type": "uint256"
        },
        {
          "internalType": "uint256",
          "name": "amountInMax",
          "type": "uint256"
        },
        {
          "internalType": "address",
          "name": "to",
          "type": "address"
        }
      ],
      "name": "exactOutputStableSwap",
      "outputs": [
        {
          "internalType": "uint256",
          "name": "amountIn",
          "type": "uint256"
        }
      ],
      "stateMutability": "payable",
      "type": "function"
    },
    {
      "inputs": [],
      "name": "factory",
      "outputs": [
        {
          "internalType": "address",
          "name": "",
          "type": "address"
        }
      ],
      "stateMutability": "view",
      "type": "function"
    },
    {
      "inputs": [],
      "name": "factoryV2",
      "outputs": [
        {
          "internalType": "address",
          "name": "",
          "type": "address"
        }
      ],
      "stateMutability": "view",
      "type": "function"
    },
    {
      "inputs": [
        {
          "internalType": "address",
          "name": "token",
          "type": "address"
        },
        {
          "internalType": "uint256",
          "name": "amount",
          "type": "uint256"
        }
      ],
      "name": "getApprovalType",
      "outputs": [
        {
          "internalType": "enum IApproveAndCall.ApprovalType",
          "name": "",
          "type": "uint8"
        }
      ],
      "stateMutability": "nonpayable",
      "type": "function"
    },
    {
      "inputs": [
        {
          "components": [
            {
              "internalType": "address",
              "name": "token0",
              "type": "address"
            },
            {
              "internalType": "address",
              "name": "token1",
              "type": "address"
            },
            {
              "internalType": "uint256",
              "name": "tokenId",
              "type": "uint256"
            },
            {
              "internalType": "uint256",
              "name": "amount0Min",
              "type": "uint256"
            },
            {
              "internalType": "uint256",
              "name": "amount1Min",
              "type": "uint256"
            }
          ],
          "internalType": "struct IApproveAndCall.IncreaseLiquidityParams",
          "name": "params",
          "type": "tuple"
        }
      ],
      "name": "increaseLiquidity",
      "outputs": [
        {
          "internalType": "bytes",
          "name": "result",
          "type": "bytes"
        }
      ],
      "stateMutability": "payable",
      "type": "function"
    },
    {
      "inputs": [
        {
          "components": [
            {
              "internalType": "address",
              "name": "token0",
              "type": "address"
            },
            {
              "internalType": "address",
              "name": "token1",
              "type": "address"
            },
            {
              "internalType": "uint24",
              "name": "fee",
              "type": "uint24"
            },
            {
              "internalType": "int24",
              "name": "tickLower",
              "type": "int24"
            },
            {
              "internalType": "int24",
              "name": "tickUpper",
              "type": "int24"
            },
            {
              "internalType": "uint256",
              "name": "amount0Min",
              "type": "uint256"
            },
            {
              "internalType": "uint256",
              "name": "amount1Min",
              "type": "uint256"
            },
            {
              "internalType": "address",
              "name": "recipient",
              "type": "address"
            }
          ],
          "internalType": "struct IApproveAndCall.MintParams",
          "name": "params",
          "type": "tuple"
        }
      ],
      "name": "mint",
      "outputs": [
        {
          "internalType": "bytes",
          "name": "result",
          "type": "bytes"
        }
      ],
      "stateMutability": "payable",
      "type": "function"
    },
    {
      "inputs": [
        {
          "internalType": "bytes32",
          "name": "previousBlockhash",
          "type": "bytes32"
        },
        {
          "internalType": "bytes[]",
          "name": "data",
          "type": "bytes[]"
        }
      ],
      "name": "multicall",
      "outputs": [
        {
          "internalType": "bytes[]",
          "name": "",
          "type": "bytes[]"
        }
      ],
      "stateMutability": "payable",
      "type": "function"
    },
    {
      "inputs": [
        {
          "internalType": "uint256",
          "name": "deadline",
          "type": "uint256"
        },
        {
          "internalType": "bytes[]",
          "name": "data",
          "type": "bytes[]"
        }
      ],
      "name": "multicall",
      "outputs": [
        {
          "internalType": "bytes[]",
          "name": "",
          "type": "bytes[]"
        }
      ],
      "stateMutability": "payable",
      "type": "function"
    },
    {
      "inputs": [
        {
          "internalType": "bytes[]",
          "name": "data",
          "type": "bytes[]"
        }
      ],
      "name": "multicall",
      "outputs": [
        {
          "internalType": "bytes[]",
          "name": "results",
          "type": "bytes[]"
        }
      ],
      "stateMutability": "payable",
      "type": "function"
    },
    {
      "inputs": [],
      "name": "owner",
      "outputs": [
        {
          "internalType": "address",
          "name": "",
          "type": "address"
        }
      ],
      "stateMutability": "view",
      "type": "function"
    },
    {
      "inputs": [
        {
          "internalType": "int256",
          "name": "amount0Delta",
          "type": "int256"
        },
        {
          "internalType": "int256",
          "name": "amount1Delta",
          "type": "int256"
        },
        {
          "internalType": "bytes",
          "name": "_data",
          "type": "bytes"
        }
      ],
      "name": "pancakeV3SwapCallback",
      "outputs": [],
      "stateMutability": "nonpayable",
      "type": "function"
    },
    {
      "inputs": [],
      "name": "positionManager",
      "outputs": [
        {
          "internalType": "address",
          "name": "",
          "type": "address"
        }
      ],
      "stateMutability": "view",
      "type": "function"
    },
    {
      "inputs": [
        {
          "internalType": "address",
          "name": "token",
          "type": "address"
        },
        {
          "internalType": "uint256",
          "name": "value",
          "type": "uint256"
        }
      ],
      "name": "pull",
      "outputs": [],
      "stateMutability": "payable",
      "type": "function"
    },
    {
      "inputs": [],
      "name": "refundETH",
      "outputs": [],
      "stateMutability": "payable",
      "type": "function"
    },
    {
      "inputs": [],
      "name": "renounceOwnership",
      "outputs": [],
      "stateMutability": "nonpayable",
      "type": "function"
    },
    {
      "inputs": [
        {
          "internalType": "address",
          "name": "token",
          "type": "address"
        },
        {
          "internalType": "uint256",
          "name": "value",
          "type": "uint256"
        },
        {
          "internalType": "uint256",
          "name": "deadline",
          "type": "uint256"
        },
        {
          "internalType": "uint8",
          "name": "v",
          "type": "uint8"
        },
        {
          "internalType": "bytes32",
          "name": "r",
          "type": "bytes32"
        },
        {
          "internalType": "bytes32",
          "name": "s",
          "type": "bytes32"
        }
      ],
      "name": "selfPermit",
      "outputs": [],
      "stateMutability": "payable",
      "type": "function"
    },
    {
      "inputs": [
        {
          "internalType": "address",
          "name": "token",
          "type": "address"
        },
        {
          "internalType": "uint256",
          "name": "nonce",
          "type": "uint256"
        },
        {
          "internalType": "uint256",
          "name": "expiry",
          "type": "uint256"
        },
        {
          "internalType": "uint8",
          "name": "v",
          "type": "uint8"
        },
        {
          "internalType": "bytes32",
          "name": "r",
          "type": "bytes32"
        },
        {
          "internalType": "bytes32",
          "name": "s",
          "type": "bytes32"
        }
      ],
      "name": "selfPermitAllowed",
      "outputs": [],
      "stateMutability": "payable",
      "type": "function"
    },
    {
      "inputs": [
        {
          "internalType": "address",
          "name": "token",
          "type": "address"
        },
        {
          "internalType": "uint256",
          "name": "nonce",
          "type": "uint256"
        },
        {
          "internalType": "uint256",
          "name": "expiry",
          "type": "uint256"
        },
        {
          "internalType": "uint8",
          "name": "v",
          "type": "uint8"
        },
        {
          "internalType": "bytes32",
          "name": "r",
          "type": "bytes32"
        },
        {
          "internalType": "bytes32",
          "name": "s",
          "type": "bytes32"
        }
      ],
      "name": "selfPermitAllowedIfNecessary",
      "outputs": [],
      "stateMutability": "payable",
      "type": "function"
    },
    {
      "inputs": [
        {
          "internalType": "address",
          "name": "token",
          "type": "address"
        },
        {
          "internalType": "uint256",
          "name": "value",
          "type": "uint256"
        },
        {
          "internalType": "uint256",
          "name": "deadline",
          "type": "uint256"
        },
        {
          "internalType": "uint8",
          "name": "v",
          "type": "uint8"
        },
        {
          "internalType": "bytes32",
          "name": "r",
          "type": "bytes32"
        },
        {
          "internalType": "bytes32",
          "name": "s",
          "type": "bytes32"
        }
      ],
      "name": "selfPermitIfNecessary",
      "outputs": [],
      "stateMutability": "payable",
      "type": "function"
    },
    {
      "inputs": [
        {
          "internalType": "address",
          "name": "_factory",
          "type": "address"
        },
        {
          "internalType": "address",
          "name": "_info",
          "type": "address"
        }
      ],
      "name": "setStableSwap",
      "outputs": [],
      "stateMutability": "nonpayable",
      "type": "function"
    },
    {
      "inputs": [],
      "name": "stableSwapFactory",
      "outputs": [
        {
          "internalType": "address",
          "name": "",
          "type": "address"
        }
      ],
      "stateMutability": "view",
      "type": "function"
    },
    {
      "inputs": [],
      "name": "stableSwapInfo",
      "outputs": [
        {
          "internalType": "address",
          "name": "",
          "type": "address"
        }
      ],
      "stateMutability": "view",
      "type": "function"
    },
    {
      "inputs": [
        {
          "internalType": "uint256",
          "name": "amountIn",
          "type": "uint256"
        },
        {
          "internalType": "uint256",
          "name": "amountOutMin",
          "type": "uint256"
        },
        {
          "internalType": "address[]",
          "name": "path",
          "type": "address[]"
        },
        {
          "internalType": "address",
          "name": "to",
          "type": "address"
        }
      ],
      "name": "swapExactTokensForTokens",
      "outputs": [
        {
          "internalType": "uint256",
          "name": "amountOut",
          "type": "uint256"
        }
      ],
      "stateMutability": "payable",
      "type": "function"
    },
    {
      "inputs": [
        {
          "internalType": "uint256",
          "name": "amountOut",
          "type": "uint256"
        },
        {
          "internalType": "uint256",
          "name": "amountInMax",
          "type": "uint256"
        },
        {
          "internalType": "address[]",
          "name": "path",
          "type": "address[]"
        },
        {
          "internalType": "address",
          "name": "to",
          "type": "address"
        }
      ],
      "name": "swapTokensForExactTokens",
      "outputs": [
        {
          "internalType": "uint256",
          "name": "amountIn",
          "type": "uint256"
        }
      ],
      "stateMutability": "payable",
      "type": "function"
    },
    {
      "inputs": [
        {
          "internalType": "address",
          "name": "token",
          "type": "address"
        },
        {
          "internalType": "uint256",
          "name": "amountMinimum",
          "type": "uint256"
        },
        {
          "internalType": "address",
          "name": "recipient",
          "type": "address"
        }
      ],
      "name": "sweepToken",
      "outputs": [],
      "stateMutability": "payable",
      "type": "function"
    },
    {
      "inputs": [
        {
          "internalType": "address",
          "name": "token",
          "type": "address"
        },
        {
          "internalType": "uint256",
          "name": "amountMinimum",
          "type": "uint256"
        }
      ],
      "name": "sweepToken",
      "outputs": [],
      "stateMutability": "payable",
      "type": "function"
    },
    {
      "inputs": [
        {
          "internalType": "address",
          "name": "token",
          "type": "address"
        },
        {
          "internalType": "uint256",
          "name": "amountMinimum",
          "type": "uint256"
        },
        {
          "internalType": "uint256",
          "name": "feeBips",
          "type": "uint256"
        },
        {
          "internalType": "address",
          "name": "feeRecipient",
          "type": "address"
        }
      ],
      "name": "sweepTokenWithFee",
      "outputs": [],
      "stateMutability": "payable",
      "type": "function"
    },
    {
      "inputs": [
        {
          "internalType": "address",
          "name": "token",
          "type": "address"
        },
        {
          "internalType": "uint256",
          "name": "amountMinimum",
          "type": "uint256"
        },
        {
          "internalType": "address",
          "name": "recipient",
          "type": "address"
        },
        {
          "internalType": "uint256",
          "name": "feeBips",
          "type": "uint256"
        },
        {
          "internalType": "address",
          "name": "feeRecipient",
          "type": "address"
        }
      ],
      "name": "sweepTokenWithFee",
      "outputs": [],
      "stateMutability": "payable",
      "type": "function"
    },
    {
      "inputs": [
        {
          "internalType": "address",
          "name": "newOwner",
          "type": "address"
        }
      ],
      "name": "transferOwnership",
      "outputs": [],
      "stateMutability": "nonpayable",
      "type": "function"
    },
    {
      "inputs": [
        {
          "internalType": "uint256",
          "name": "amountMinimum",
          "type": "uint256"
        },
        {
          "internalType": "address",
          "name": "recipient",
          "type": "address"
        }
      ],
      "name": "unwrapWETH9",
      "outputs": [],
      "stateMutability": "payable",
      "type": "function"
    },
    {
      "inputs": [
        {
          "internalType": "uint256",
          "name": "amountMinimum",
          "type": "uint256"
        },
        {
          "internalType": "address",
          "name": "recipient",
          "type": "address"
        },
        {
          "internalType": "uint256",
          "name": "feeBips",
          "type": "uint256"
        },
        {
          "internalType": "address",
          "name": "feeRecipient",
          "type": "address"
        }
      ],
      "name": "unwrapWETH9WithFee",
      "outputs": [],
      "stateMutability": "payable",
      "type": "function"
    },
    {
      "inputs": [
        {
          "internalType": "uint256",
          "name": "amountMinimum",
          "type": "uint256"
        },
        {
          "internalType": "uint256",
          "name": "feeBips",
          "type": "uint256"
        },
        {
          "internalType": "address",
          "name": "feeRecipient",
          "type": "address"
        }
      ],
      "name": "unwrapWETH9WithFee",
      "outputs": [],
      "stateMutability": "payable",
      "type": "function"
    },
    {
      "inputs": [
        {
          "internalType": "uint256",
          "name": "value",
          "type": "uint256"
        }
      ],
      "name": "wrapETH",
      "outputs": [],
      "stateMutability": "payable",
      "type": "function"
    },
    {
      "stateMutability": "payable",
      "type": "receive"
    }
  ],
  "bytecode": "0x6101206040526000196002553480156200001857600080fd5b5060405162005f2238038062005f228339810160408190526200003b9162000133565b6001600160601b0319606088811b821660805285811b821660a05287811b821660c05286811b821660e05282901b16610100528282620000846200007e620000c2565b620000c6565b60018055600380546001600160a01b039384166001600160a01b0319918216179091556004805492909316911617905550620001c795505050505050565b3390565b600080546001600160a01b038381166001600160a01b0319831681178455604051919092169283917f8be0079c531659141344cd1fd0a4f28419497f9722a3daafe3b4186f6b6457e09190a35050565b80516001600160a01b03811681146200012e57600080fd5b919050565b600080600080600080600060e0888a0312156200014e578283fd5b620001598862000116565b9650620001696020890162000116565b9550620001796040890162000116565b9450620001896060890162000116565b9350620001996080890162000116565b9250620001a960a0890162000116565b9150620001b960c0890162000116565b905092959891949750929550565b60805160601c60a05160601c60c05160601c60e05160601c6101005160601c615ca36200027f6000398061029c5280610a6152806113b0528061149b5280611528528061171852806118035280612d415280612d875280612dfb5250806121b6525080610b8c52806121e652806127bd52806129de52806142ce5250806116c95280611ac3528061221d528061340d525080610dd55280610e9b52806111665280611693528061304e52806132b65250615ca36000f3fe60806040526004361061028c5760003560e01c80639b2c0a371161015a578063d4ef38de116100c1578063efdeed8e1161007a578063efdeed8e14610684578063f100b205146106a4578063f25801a7146106b7578063f2d5d56b146106d7578063f2fde38b146106ea578063f3995c671461070a576102fc565b8063d4ef38de146105f6578063d5f3948814610609578063dee00f351461061e578063df2ab5bb1461064b578063e0e189a01461065e578063e90a182f14610671576102fc565b8063b4c4e55511610113578063b4c4e55514610580578063b858183f14610593578063b85aa7af146105a6578063c2e3140a146105bb578063c45a0155146105ce578063cab372ce146105e3576102fc565b80639b2c0a371461050e578063a4a78f0c14610521578063ab3fdd5014610534578063ac9650d814610547578063b3a2af131461055a578063b45542311461056d576102fc565b8063472b43f3116101fe5780635ae401dc116101b75780635ae401dc14610494578063639d71a9146104a757806368e0d4e1146104ba578063715018a6146104cf578063791b98bc146104e45780638da5cb5b146104f9576102fc565b8063472b43f31461041157806349404b7c146104245780634aa4a4fc146104375780635023b4df14610459578063571ac8b01461046c57806357c799611461047f576102fc565b80631f0464d1116102505780631f0464d11461037857806323a69e751461039857806324dec034146103b85780633068c554146103d857806342712a67146103eb5780634659a494146103fe576102fc565b806304e45aaf1461030157806309b813461461032a57806311ed56c91461033d57806312210e8a1461035d5780631c58db4f14610365576102fc565b366102fc57336001600160a01b037f000000000000000000000000000000000000000000000000000000000000000016146102fa576040805162461bcd60e51b81526020600482015260096024820152684e6f7420574554483960b81b604482015290519081900360640190fd5b005b600080fd5b61031461030f36600461526b565b61071d565b6040516103219190615ad9565b60405180910390f35b610314610338366004615305565b61084c565b61035061034b36600461535e565b6108ec565b6040516103219190615974565b6102fa610a4d565b6102fa6103733660046154e0565b610a5f565b61038b610386366004614fd5565b610ad6565b6040516103219190615914565b3480156103a457600080fd5b506102fa6103b33660046150e3565b610b30565b3480156103c457600080fd5b506102fa6103d3366004614bb1565b610ccd565b6102fa6103e6366004614ce1565b610d62565b6103146103f93660046155cc565b610d75565b6102fa61040c366004614d2a565b610fc8565b61031461041f3660046155cc565b611056565b6102fa610432366004615510565b6113ac565b34801561044357600080fd5b5061044c611526565b6040516103219190615774565b61031461046736600461533c565b61154a565b6102fa61047a366004614b72565b611601565b34801561048b57600080fd5b5061044c611619565b61038b6104a2366004614fd5565b611628565b6102fa6104b5366004614b72565b61167d565b3480156104c657600080fd5b5061044c611691565b3480156104db57600080fd5b506102fa6116b5565b3480156104f057600080fd5b5061044c6116c7565b34801561050557600080fd5b5061044c6116eb565b6102fa61051c366004615534565b6116fa565b6102fa61052f366004614d2a565b6118c4565b6102fa610542366004614b72565b611955565b61038b610555366004614e1d565b611975565b61035061056836600461501e565b611abd565b61031461057b366004614d8a565b611b74565b61031461058e366004614d8a565b611dc2565b6103146105a13660046151c6565b611fa8565b3480156105b257600080fd5b5061044c612116565b6102fa6105c9366004614d2a565b612125565b3480156105da57600080fd5b5061044c6121b4565b6102fa6105f1366004614b72565b611969565b6102fa610604366004615572565b6121d8565b34801561061557600080fd5b5061044c6121e4565b34801561062a57600080fd5b5061063e610639366004614c17565b612208565b6040516103219190615987565b6102fa610659366004614c42565b61232f565b6102fa61066c366004614c83565b612407565b6102fa61067f366004614c17565b61252e565b34801561069057600080fd5b506102fa61069f366004614e5c565b61253d565b6103506106b236600461534d565b612562565b3480156106c357600080fd5b506102fa6106d2366004615050565b6125e4565b6102fa6106e5366004614c17565b612608565b3480156106f657600080fd5b506102fa610705366004614b72565b612614565b6102fa610718366004614d2a565b61266a565b60006107276126dc565b600080836080015114156107bc575081516040516370a0823160e01b81526001916001600160a01b0316906370a0823190610766903090600401615774565b60206040518083038186803b15801561077e57600080fd5b505afa158015610792573d6000803e3d6000fd5b505050506040513d601f19601f820116820180604052508101906107b691906154f8565b60808401525b61082b836080015184606001518560c001516040518060400160405280886000015189604001518a602001516040516020016107fa9392919061570d565b604051602081830303815290604052815260200186610819573361081b565b305b6001600160a01b0316905261273b565b91508260a0015182101561083e57600080fd5b50610847612956565b919050565b60006108566126dc565b6108c86040830180359061086d9060208601614b72565b60408051808201909152600090806108858880615b40565b8080601f0160208091040260200160405190810160405280939291908181526020018383808284376000920191909152505050908252503360209091015261295c565b505060025460608201358111156108de57600080fd5b600019600255610847612956565b604080516101608101909152606090610a4790634418b22b60e11b90806109166020870187614b72565b6001600160a01b031681526020018560200160208101906109379190614b72565b6001600160a01b0316815260200161095560608701604088016154c6565b62ffffff16815260200161096f60808701606088016150a4565b60020b815260200161098760a08701608088016150a4565b60020b81526020908101906109a7906109a290880188614b72565b612ba0565b81526020016109c28660200160208101906109a29190614b72565b815260a0860135602082015260c086013560408201526060016109ec610100870160e08801614b72565b6001600160a01b03168152602001600019815250604051602401610a1091906159df565b60408051601f198184030181529190526020810180516001600160e01b03166001600160e01b031990931692909217909152611abd565b92915050565b4715610a5d57610a5d3347612c1f565b565b7f00000000000000000000000000000000000000000000000000000000000000006001600160a01b031663d0e30db0826040518263ffffffff1660e01b81526004016000604051808303818588803b158015610aba57600080fd5b505af1158015610ace573d6000803e3d6000fd5b505050505050565b60608380600143034014610b1d576040805162461bcd60e51b8152602060048201526009602482015268084d8dec6d6d0c2e6d60bb1b604482015290519081900360640190fd5b610b278484611975565b95945050505050565b6000841380610b3f5750600083135b610b4857600080fd5b6000610b5682840184615370565b90506000806000610b6a8460000151612d0e565b92509250925073__$7c69ab5a394752246a0360b0aa15ea5e31$__638bdb19257f00000000000000000000000000000000000000000000000000000000000000008585856040518563ffffffff1660e01b8152600401610bcd94939291906157c5565b60206040518083038186803b158015610be557600080fd5b505af4158015610bf9573d6000803e3d6000fd5b505050506040513d601f19601f82011682018060405250810190610c1d9190614b95565b5060008060008a13610c4457846001600160a01b0316846001600160a01b03161089610c5b565b836001600160a01b0316856001600160a01b0316108a5b915091508115610c7a57610c758587602001513384612d3f565b610cc1565b8551610c8590612ecf565b15610caa578551610c9590612ed7565b8652610ca4813360008961295c565b50610cc1565b80600281905550610cc18487602001513384612d3f565b50505050505050505050565b610cd5612eee565b6001600160a01b03821615801590610cf557506001600160a01b03811615155b610cfe57600080fd5b600380546001600160a01b038085166001600160a01b0319928316179283905560048054858316931692909217918290556040519181169216907f26e41379222b54b0470031bc11852ad23058ffb8983f7cc0e18257d6f7afca9d90600090a35050565b610d6f8484338585612407565b50505050565b6000610d7f6126dc565b600084846000818110610d8e57fe5b9050602002016020810190610da39190614b72565b604051630c90945960e11b815290915073__$7c69ab5a394752246a0360b0aa15ea5e31$__9063192128b290610e03907f0000000000000000000000000000000000000000000000000000000000000000908b908a908a906004016158e2565b60006040518083038186803b158015610e1b57600080fd5b505af4158015610e2f573d6000803e3d6000fd5b505050506040513d6000823e601f3d908101601f19168201604052610e579190810190614f2c565b600081518110610e6357fe5b6020026020010151915085821115610e7a57600080fd5b610f51813373__$7c69ab5a394752246a0360b0aa15ea5e31$__636d91c0e27f0000000000000000000000000000000000000000000000000000000000000000868b8b6001818110610ec857fe5b9050602002016020810190610edd9190614b72565b6040518463ffffffff1660e01b8152600401610efb939291906157a2565b60206040518083038186803b158015610f1357600080fd5b505af4158015610f27573d6000803e3d6000fd5b505050506040513d601f19601f82011682018060405250810190610f4b9190614b95565b85612d3f565b6001600160a01b03831660011415610f6b57339250610f81565b6001600160a01b03831660021415610f81573092505b610fbf858580806020026020016040519081016040528093929190818152602001838360200280828437600092019190915250879250612f62915050565b50610b27612956565b604080516323f2ebc360e21b815233600482015230602482015260448101879052606481018690526001608482015260ff851660a482015260c4810184905260e4810183905290516001600160a01b03881691638fcbaf0c9161010480830192600092919082900301818387803b15801561104257600080fd5b505af1158015610cc1573d6000803e3d6000fd5b60006110606126dc565b60008484600081811061106f57fe5b90506020020160208101906110849190614b72565b905060008585600019810181811061109857fe5b90506020020160208101906110ad9190614b72565b905060008861113957506040516370a0823160e01b81526001906001600160a01b038416906370a08231906110e6903090600401615774565b60206040518083038186803b1580156110fe57600080fd5b505afa158015611112573d6000803e3d6000fd5b505050506040513d601f19601f8201168201806040525081019061113691906154f8565b98505b61121c8382611148573361114a565b305b73__$7c69ab5a394752246a0360b0aa15ea5e31$__636d91c0e27f0000000000000000000000000000000000000000000000000000000000000000888d8d600181811061119357fe5b90506020020160208101906111a89190614b72565b6040518463ffffffff1660e01b81526004016111c6939291906157a2565b60206040518083038186803b1580156111de57600080fd5b505af41580156111f2573d6000803e3d6000fd5b505050506040513d601f19601f820116820180604052508101906112169190614b95565b8c612d3f565b6001600160a01b038516600114156112365733945061124c565b6001600160a01b0385166002141561124c573094505b6040516370a0823160e01b81526000906001600160a01b038416906370a082319061127b908990600401615774565b60206040518083038186803b15801561129357600080fd5b505afa1580156112a7573d6000803e3d6000fd5b505050506040513d601f19601f820116820180604052508101906112cb91906154f8565b905061130b8888808060200260200160405190810160405280939291908181526020018383602002808284376000920191909152508a9250612f62915050565b61139181846001600160a01b03166370a08231896040518263ffffffff1660e01b815260040161133b9190615774565b60206040518083038186803b15801561135357600080fd5b505afa158015611367573d6000803e3d6000fd5b505050506040513d601f19601f8201168201806040525081019061138b91906154f8565b906133e4565b9450888510156113a057600080fd5b50505050610b27612956565b60007f00000000000000000000000000000000000000000000000000000000000000006001600160a01b03166370a08231306040518263ffffffff1660e01b815260040180826001600160a01b0316815260200191505060206040518083038186803b15801561141b57600080fd5b505afa15801561142f573d6000803e3d6000fd5b505050506040513d602081101561144557600080fd5b5051905082811015611493576040805162461bcd60e51b8152602060048201526012602482015271496e73756666696369656e7420574554483960701b604482015290519081900360640190fd5b8015611521577f00000000000000000000000000000000000000000000000000000000000000006001600160a01b0316632e1a7d4d826040518263ffffffff1660e01b815260040180828152602001915050600060405180830381600087803b1580156114ff57600080fd5b505af1158015611513573d6000803e3d6000fd5b505050506115218282612c1f565b505050565b7f000000000000000000000000000000000000000000000000000000000000000081565b60006115546126dc565b6115ee6080830180359061156b9060608601614b72565b61157b60e0860160c08701614b72565b60405180604001604052808760200160208101906115999190614b72565b6115a960608a0160408b016154c6565b6115b660208b018b614b72565b6040516020016115c89392919061570d565b6040516020818303038152906040528152602001336001600160a01b031681525061295c565b90508160a001358111156108de57600080fd5b61160d816000196133f4565b61161657600080fd5b50565b6003546001600160a01b031681565b606083806116346134e8565b1115610b1d576040805162461bcd60e51b8152602060048201526013602482015272151c985b9cd858dd1a5bdb881d1bdbc81bdb19606a1b604482015290519081900360640190fd5b6116888160006133f4565b61160157600080fd5b7f000000000000000000000000000000000000000000000000000000000000000081565b6116bd612eee565b610a5d60006134ec565b7f000000000000000000000000000000000000000000000000000000000000000081565b6000546001600160a01b031690565b60008211801561170b575060648211155b61171457600080fd5b60007f00000000000000000000000000000000000000000000000000000000000000006001600160a01b03166370a08231306040518263ffffffff1660e01b815260040180826001600160a01b0316815260200191505060206040518083038186803b15801561178357600080fd5b505afa158015611797573d6000803e3d6000fd5b505050506040513d60208110156117ad57600080fd5b50519050848110156117fb576040805162461bcd60e51b8152602060048201526012602482015271496e73756666696369656e7420574554483960701b604482015290519081900360640190fd5b80156118bd577f00000000000000000000000000000000000000000000000000000000000000006001600160a01b0316632e1a7d4d826040518263ffffffff1660e01b815260040180828152602001915050600060405180830381600087803b15801561186757600080fd5b505af115801561187b573d6000803e3d6000fd5b505050506000612710611897858461353c90919063ffffffff16565b8161189e57fe5b04905080156118b1576118b18382612c1f565b610ace85828403612c1f565b5050505050565b60408051636eb1769f60e11b81523360048201523060248201529051600019916001600160a01b0389169163dd62ed3e91604480820192602092909190829003018186803b15801561191557600080fd5b505afa158015611929573d6000803e3d6000fd5b505050506040513d602081101561193f57600080fd5b50511015610ace57610ace868686868686610fc8565b6119608160006133f4565b61196957600080fd5b61160d816001196133f4565b6060816001600160401b038111801561198d57600080fd5b506040519080825280602002602001820160405280156119c157816020015b60608152602001906001900390816119ac5790505b50905060005b82811015611ab657600080308686858181106119df57fe5b90506020028101906119f19190615b40565b6040516119ff929190615748565b600060405180830381855af49150503d8060008114611a3a576040519150601f19603f3d011682016040523d82523d6000602084013e611a3f565b606091505b509150915081611a9457604481511015611a5857600080fd5b60048101905080806020019051810190611a72919061515d565b60405162461bcd60e51b8152600401611a8b9190615974565b60405180910390fd5b80848481518110611aa157fe5b602090810291909101015250506001016119c7565b5092915050565b606060007f00000000000000000000000000000000000000000000000000000000000000006001600160a01b031683604051611af99190615758565b6000604051808303816000865af19150503d8060008114611b36576040519150601f19603f3d011682016040523d82523d6000602084013e611b3b565b606091505b509250905080611b6e57604482511015611b5457600080fd5b60048201915081806020019051810190611a72919061515d565b50919050565b6000611b7e6126dc565b600088886000818110611b8d57fe5b9050602002016020810190611ba29190614b72565b9050600089896000198101818110611bb657fe5b9050602002016020810190611bcb9190614b72565b9050600086611c5757506040516370a0823160e01b81526001906001600160a01b038416906370a0823190611c04903090600401615774565b60206040518083038186803b158015611c1c57600080fd5b505afa158015611c30573d6000803e3d6000fd5b505050506040513d601f19601f82011682018060405250810190611c5491906154f8565b96505b80611c6857611c688333308a612d3f565b611cd58b8b8080602002602001604051908101604052809392919081815260200183836020028082843760009201919091525050604080516020808f0282810182019093528e82529093508e92508d91829185019084908082843760009201919091525061356092505050565b6040516370a0823160e01b81526001600160a01b038316906370a0823190611d01903090600401615774565b60206040518083038186803b158015611d1957600080fd5b505afa158015611d2d573d6000803e3d6000fd5b505050506040513d601f19601f82011682018060405250810190611d5191906154f8565b935085841015611d6057600080fd5b6001600160a01b03851660011415611d7a57339450611d90565b6001600160a01b03851660021415611d90573094505b6001600160a01b0385163014611dac57611dac82308787612d3f565b505050611db7612956565b979650505050505050565b6000611dcc6126dc565b60035460048054604051635923cab360e01b815273__$7c69ab5a394752246a0360b0aa15ea5e31$__93635923cab393611e1f936001600160a01b03928316939216918e918e918e918e918e910161581d565b60006040518083038186803b158015611e3757600080fd5b505af4158015611e4b573d6000803e3d6000fd5b505050506040513d6000823e601f3d908101601f19168201604052611e739190810190614f2c565b600081518110611e7f57fe5b6020026020010151905082811115611e9657600080fd5b611ec388886000818110611ea657fe5b9050602002016020810190611ebb9190614b72565b333084612d3f565b611f3088888080602002602001604051908101604052809392919081815260200183836020028082843760009201919091525050604080516020808c0282810182019093528b82529093508b92508a91829185019084908082843760009201919091525061356092505050565b6001600160a01b03821660011415611f4a57339150611f60565b6001600160a01b03821660021415611f60573091505b6001600160a01b0382163014611fa057611fa088886000198101818110611f8357fe5b9050602002016020810190611f989190614b72565b308487612d3f565b611db7612956565b6000611fb26126dc565b6000808360400151141561205b57600190506000611fd38460000151612d0e565b50506040516370a0823160e01b81529091506001600160a01b038216906370a0823190612004903090600401615774565b60206040518083038186803b15801561201c57600080fd5b505afa158015612030573d6000803e3d6000fd5b505050506040513d601f19601f8201168201806040525081019061205491906154f8565b6040850152505b600081612068573361206a565b305b90505b600061207c8560000151612ecf565b90506120c8856040015182612095578660200151612097565b305b600060405180604001604052806120b18b60000151613771565b8152602001876001600160a01b031681525061273b565b604086015280156120e85784513092506120e190612ed7565b85526120f5565b84604001519350506120fb565b5061206d565b836060015183101561210c57600080fd5b5050610847612956565b6004546001600160a01b031681565b60408051636eb1769f60e11b8152336004820152306024820152905186916001600160a01b0389169163dd62ed3e91604480820192602092909190829003018186803b15801561217457600080fd5b505afa158015612188573d6000803e3d6000fd5b505050506040513d602081101561219e57600080fd5b50511015610ace57610ace86868686868661266a565b7f000000000000000000000000000000000000000000000000000000000000000081565b611521833384846116fa565b7f000000000000000000000000000000000000000000000000000000000000000081565b600081836001600160a01b031663dd62ed3e307f00000000000000000000000000000000000000000000000000000000000000006040518363ffffffff1660e01b8152600401612259929190615788565b60206040518083038186803b15801561227157600080fd5b505afa158015612285573d6000803e3d6000fd5b505050506040513d601f19601f820116820180604052508101906122a991906154f8565b106122b657506000610a47565b6122c2836000196133f4565b156122cf57506001610a47565b6122db836001196133f4565b156122e857506002610a47565b6122f38360006133f4565b6122fc57600080fd5b612308836000196133f4565b1561231557506003610a47565b612321836001196133f4565b156102fc5750600492915050565b6000836001600160a01b03166370a08231306040518263ffffffff1660e01b815260040180826001600160a01b0316815260200191505060206040518083038186803b15801561237e57600080fd5b505afa158015612392573d6000803e3d6000fd5b505050506040513d60208110156123a857600080fd5b50519050828110156123f6576040805162461bcd60e51b815260206004820152601260248201527124b739bab33334b1b4b2b73a103a37b5b2b760711b604482015290519081900360640190fd5b8015610d6f57610d6f848383613780565b600082118015612418575060648211155b61242157600080fd5b6000856001600160a01b03166370a08231306040518263ffffffff1660e01b815260040180826001600160a01b0316815260200191505060206040518083038186803b15801561247057600080fd5b505afa158015612484573d6000803e3d6000fd5b505050506040513d602081101561249a57600080fd5b50519050848110156124e8576040805162461bcd60e51b815260206004820152601260248201527124b739bab33334b1b4b2b73a103a37b5b2b760711b604482015290519081900360640190fd5b8015610ace5760006127106124fd838661353c565b8161250457fe5b049050801561251857612518878483613780565b6125258786838503613780565b50505050505050565b61253982823361232f565b5050565b60008061254b8686856138c7565b915091508362ffffff1681830312610ace57600080fd5b6060610a4763219f5d1760e01b6040518060c001604052808560400135815260200161259a8660000160208101906109a29190614b72565b81526020016125b58660200160208101906109a29190614b72565b81526020018560600135815260200185608001358152602001600019815250604051602401610a10919061599b565b6000806125f18584613abd565b915091508362ffffff16818303126118bd57600080fd5b61253982333084613c94565b61261c612eee565b6001600160a01b0381166126615760405162461bcd60e51b8152600401808060200182810382526026815260200180615c486026913960400191505060405180910390fd5b611616816134ec565b6040805163d505accf60e01b8152336004820152306024820152604481018790526064810186905260ff8516608482015260a4810184905260c4810183905290516001600160a01b0388169163d505accf9160e480830192600092919082900301818387803b15801561104257600080fd5b60026001541415612734576040805162461bcd60e51b815260206004820152601f60248201527f5265656e7472616e637947756172643a207265656e7472616e742063616c6c00604482015290519081900360640190fd5b6002600155565b60006001600160a01b038416600114156127575733935061276d565b6001600160a01b0384166002141561276d573093505b600080600061277f8560000151612d0e565b9250925092506000826001600160a01b0316846001600160a01b031610905060008073__$7c69ab5a394752246a0360b0aa15ea5e31$__634e6c8ed87f00000000000000000000000000000000000000000000000000000000000000008888886040518563ffffffff1660e01b81526004016127fe94939291906157c5565b60206040518083038186803b15801561281657600080fd5b505af415801561282a573d6000803e3d6000fd5b505050506040513d601f19601f8201168201806040525081019061284e9190614b95565b6001600160a01b031663128acb088b856128678f613de4565b6001600160a01b038e161561287c578d6128a2565b8761289b5773fffd8963efd1fc6a506488495d951d5263988d256128a2565b6401000276a45b8d6040516020016128b39190615a8d565b6040516020818303038152906040526040518663ffffffff1660e01b81526004016128e295949392919061588e565b6040805180830381600087803b1580156128fb57600080fd5b505af115801561290f573d6000803e3d6000fd5b505050506040513d601f19601f8201168201806040525081019061293391906150c0565b91509150826129425781612944565b805b6000039b9a5050505050505050505050565b60018055565b60006001600160a01b038416600114156129785733935061298e565b6001600160a01b0384166002141561298e573093505b60008060006129a08560000151612d0e565b9250925092506000836001600160a01b0316836001600160a01b031610905060008073__$7c69ab5a394752246a0360b0aa15ea5e31$__634e6c8ed87f00000000000000000000000000000000000000000000000000000000000000008789886040518563ffffffff1660e01b8152600401612a1f94939291906157c5565b60206040518083038186803b158015612a3757600080fd5b505af4158015612a4b573d6000803e3d6000fd5b505050506040513d601f19601f82011682018060405250810190612a6f9190614b95565b6001600160a01b031663128acb088b85612a888f613de4565b6000036001600160a01b038e1615612aa0578d612ac6565b87612abf5773fffd8963efd1fc6a506488495d951d5263988d25612ac6565b6401000276a45b8d604051602001612ad79190615a8d565b6040516020818303038152906040526040518663ffffffff1660e01b8152600401612b0695949392919061588e565b6040805180830381600087803b158015612b1f57600080fd5b505af1158015612b33573d6000803e3d6000fd5b505050506040513d601f19601f82011682018060405250810190612b5791906150c0565b91509150600083612b6c578183600003612b72565b82826000035b90985090506001600160a01b038a16612b91578b8114612b9157600080fd5b50505050505050949350505050565b6040516370a0823160e01b81526000906001600160a01b038316906370a0823190612bcf903090600401615774565b60206040518083038186803b158015612be757600080fd5b505afa158015612bfb573d6000803e3d6000fd5b505050506040513d601f19601f82011682018060405250810190610a4791906154f8565b604080516000808252602082019092526001600160a01b0384169083906040518082805190602001908083835b60208310612c6b5780518252601f199092019160209182019101612c4c565b6001836020036101000a03801982511681845116808217855250505050505090500191505060006040518083038185875af1925050503d8060008114612ccd576040519150601f19603f3d011682016040523d82523d6000602084013e612cd2565b606091505b5050905080611521576040805162461bcd60e51b815260206004820152600360248201526253544560e81b604482015290519081900360640190fd5b60008080612d1c8482613dfa565b9250612d29846014613eaa565b9050612d36846017613dfa565b91509193909250565b7f00000000000000000000000000000000000000000000000000000000000000006001600160a01b0316846001600160a01b0316148015612d805750804710155b15612ea2577f00000000000000000000000000000000000000000000000000000000000000006001600160a01b031663d0e30db0826040518263ffffffff1660e01b81526004016000604051808303818588803b158015612de057600080fd5b505af1158015612df4573d6000803e3d6000fd5b50505050507f00000000000000000000000000000000000000000000000000000000000000006001600160a01b031663a9059cbb83836040518363ffffffff1660e01b815260040180836001600160a01b0316815260200182815260200192505050602060405180830381600087803b158015612e7057600080fd5b505af1158015612e84573d6000803e3d6000fd5b505050506040513d6020811015612e9a57600080fd5b50610d6f9050565b6001600160a01b038316301415612ec357612ebe848383613780565b610d6f565b610d6f84848484613c94565b516042111590565b8051606090610a4790839060179060161901613f51565b612ef66140a2565b6001600160a01b0316612f076116eb565b6001600160a01b031614610a5d576040805162461bcd60e51b815260206004820181905260248201527f4f776e61626c653a2063616c6c6572206973206e6f7420746865206f776e6572604482015290519081900360640190fd5b60005b600183510381101561152157600080848381518110612f8057fe5b6020026020010151858460010181518110612f9757fe5b602002602001015191509150600073__$7c69ab5a394752246a0360b0aa15ea5e31$__63544caa5684846040518363ffffffff1660e01b8152600401612fde929190615788565b604080518083038186803b158015612ff557600080fd5b505af4158015613009573d6000803e3d6000fd5b505050506040513d601f19601f8201168201806040525081019061302d9190614be9565b509050600073__$7c69ab5a394752246a0360b0aa15ea5e31$__636d91c0e27f000000000000000000000000000000000000000000000000000000000000000086866040518463ffffffff1660e01b815260040161308d939291906157a2565b60206040518083038186803b1580156130a557600080fd5b505af41580156130b9573d6000803e3d6000fd5b505050506040513d601f19601f820116820180604052508101906130dd9190614b95565b9050600080600080846001600160a01b0316630902f1ac6040518163ffffffff1660e01b815260040160606040518083038186803b15801561311e57600080fd5b505afa158015613132573d6000803e3d6000fd5b505050506040513d601f19601f8201168201806040525081019061315691906153ff565b506001600160701b031691506001600160701b03169150600080876001600160a01b03168a6001600160a01b031614613190578284613193565b83835b915091506131c7828b6001600160a01b03166370a082318a6040518263ffffffff1660e01b815260040161133b9190615774565b604051630153543560e21b815290965073__$7c69ab5a394752246a0360b0aa15ea5e31$__9063054d50d49061320590899086908690600401615b0f565b60206040518083038186803b15801561321d57600080fd5b505af4158015613231573d6000803e3d6000fd5b505050506040513d601f19601f8201168201806040525081019061325591906154f8565b945050505050600080856001600160a01b0316886001600160a01b03161461327f57826000613283565b6000835b91509150600060028c51038a1061329a578a61335b565b73__$7c69ab5a394752246a0360b0aa15ea5e31$__636d91c0e27f00000000000000000000000000000000000000000000000000000000000000008a8f8e600201815181106132e557fe5b60200260200101516040518463ffffffff1660e01b815260040161330b939291906157a2565b60206040518083038186803b15801561332357600080fd5b505af4158015613337573d6000803e3d6000fd5b505050506040513d601f19601f8201168201806040525081019061335b9190614b95565b6040805160008152602081019182905263022c0d9f60e01b9091529091506001600160a01b0387169063022c0d9f9061339d9086908690869060248101615ae2565b600060405180830381600087803b1580156133b757600080fd5b505af11580156133cb573d6000803e3d6000fd5b50506001909b019a50612f659950505050505050505050565b80820382811115610a4757600080fd5b6000806000846001600160a01b031663095ea7b360e01b7f00000000000000000000000000000000000000000000000000000000000000008660405160240161343e9291906158c9565b60408051601f198184030181529181526020820180516001600160e01b03166001600160e01b031990941693909317909252905161347c9190615758565b6000604051808303816000865af19150503d80600081146134b9576040519150601f19603f3d011682016040523d82523d6000602084013e6134be565b606091505b5091509150818015610b27575080511580610b27575080806020019051810190610b279190614fbb565b4290565b600080546001600160a01b038381166001600160a01b0319831681178455604051919092169283917f8be0079c531659141344cd1fd0a4f28419497f9722a3daafe3b4186f6b6457e09190a35050565b60008215806135575750508181028183828161355457fe5b04145b610a4757600080fd5b805160018351031461357157600080fd5b60005b81518110156115215760008084838151811061358c57fe5b60200260200101518584600101815181106135a357fe5b602002602001015191509150600080600073__$7c69ab5a394752246a0360b0aa15ea5e31$__63b735aecd600360009054906101000a90046001600160a01b031687878b8b815181106135f257fe5b60200260200101516040518563ffffffff1660e01b815260040161361994939291906157f3565b60606040518083038186803b15801561363157600080fd5b505af4158015613645573d6000803e3d6000fd5b505050506040513d601f19601f82011682018060405250810190613669919061559f565b9250925092506000856001600160a01b03166370a08231306040518263ffffffff1660e01b815260040161369d9190615774565b60206040518083038186803b1580156136b557600080fd5b505afa1580156136c9573d6000803e3d6000fd5b505050506040513d601f19601f820116820180604052508101906136ed91906154f8565b90506136fa8683836140a6565b604051630b68372160e31b81526001600160a01b03831690635b41b9089061372d90879087908690600090600401615b25565b600060405180830381600087803b15801561374757600080fd5b505af115801561375b573d6000803e3d6000fd5b5050600190980197506135749650505050505050565b6060610a47826000602b613f51565b604080516001600160a01b038481166024830152604480830185905283518084039091018152606490920183526020820180516001600160e01b031663a9059cbb60e01b1781529251825160009485949389169392918291908083835b602083106137fc5780518252601f1990920191602091820191016137dd565b6001836020036101000a0380198251168184511680821785525050505050509050019150506000604051808303816000865af19150503d806000811461385e576040519150601f19603f3d011682016040523d82523d6000602084013e613863565b606091505b5091509150818015613891575080511580613891575080806020019051602081101561388e57600080fd5b50515b6118bd576040805162461bcd60e51b815260206004820152600260248201526114d560f21b604482015290519081900360640190fd5b60008083518551146138d857600080fd5b600085516001600160401b03811180156138f157600080fd5b5060405190808252806020026020018201604052801561392b57816020015b6139186149c5565b8152602001906001900390816139105790505b509050600086516001600160401b038111801561394757600080fd5b5060405190808252806020026020018201604052801561398157816020015b61396e6149c5565b8152602001906001900390816139665790505b50905060005b8751811015613a96576000806139b08a84815181106139a257fe5b602002602001015189613abd565b915091506139bd826141ed565b8584815181106139c957fe5b60200260200101516000019060020b908160020b815250506139ea816141ed565b8484815181106139f657fe5b60200260200101516000019060020b908160020b81525050888381518110613a1a57fe5b6020026020010151858481518110613a2e57fe5b6020026020010151602001906001600160801b031690816001600160801b031681525050888381518110613a5e57fe5b6020026020010151848481518110613a7257fe5b6020908102919091018101516001600160801b039092169101525050600101613987565b50613aa0826141fe565b60020b9350613aae816141fe565b60020b92505050935093915050565b600080600080613acc866142ba565b90506000805b82811015613c75576000806000613ae88b612d0e565b9250925092506000613afb8484846142c7565b905060008063ffffffff8d16613b2457613b1483614305565b600291820b9350900b9050613bb9565b613b2e838e61451c565b8160020b91505080925050826001600160a01b0316633850c7bd6040518163ffffffff1660e01b815260040160e06040518083038186803b158015613b7257600080fd5b505afa158015613b86573d6000803e3d6000fd5b505050506040513d601f19601f82011682018060405250810190613baa919061543a565b50505060029290920b93505050505b60018903871415613be057846001600160a01b0316866001600160a01b0316109950613bef565b613be98e612ed7565b9d508597505b6000871580613c425750866001600160a01b0316896001600160a01b031610613c2c57866001600160a01b0316866001600160a01b031610613c42565b856001600160a01b0316876001600160a01b0316105b90508015613c57579b82019b9a81019a613c62565b828d039c50818c039b505b505060019095019450613ad29350505050565b5082613c8a5760001985029450600019840293505b5050509250929050565b604080516001600160a01b0385811660248301528481166044830152606480830185905283518084039091018152608490920183526020820180516001600160e01b03166323b872dd60e01b178152925182516000948594938a169392918291908083835b60208310613d185780518252601f199092019160209182019101613cf9565b6001836020036101000a0380198251168184511680821785525050505050509050019150506000604051808303816000865af19150503d8060008114613d7a576040519150601f19603f3d011682016040523d82523d6000602084013e613d7f565b606091505b5091509150818015613dad575080511580613dad5750808060200190516020811015613daa57600080fd5b50515b610ace576040805162461bcd60e51b815260206004820152600360248201526229aa2360e91b604482015290519081900360640190fd5b6000600160ff1b8210613df657600080fd5b5090565b600081826014011015613e49576040805162461bcd60e51b8152602060048201526012602482015271746f416464726573735f6f766572666c6f7760701b604482015290519081900360640190fd5b8160140183511015613e9a576040805162461bcd60e51b8152602060048201526015602482015274746f416464726573735f6f75744f66426f756e647360581b604482015290519081900360640190fd5b500160200151600160601b900490565b600081826003011015613ef8576040805162461bcd60e51b8152602060048201526011602482015270746f55696e7432345f6f766572666c6f7760781b604482015290519081900360640190fd5b8160030183511015613f48576040805162461bcd60e51b8152602060048201526014602482015273746f55696e7432345f6f75744f66426f756e647360601b604482015290519081900360640190fd5b50016003015190565b60608182601f011015613f9c576040805162461bcd60e51b815260206004820152600e60248201526d736c6963655f6f766572666c6f7760901b604482015290519081900360640190fd5b828284011015613fe4576040805162461bcd60e51b815260206004820152600e60248201526d736c6963655f6f766572666c6f7760901b604482015290519081900360640190fd5b81830184511015614030576040805162461bcd60e51b8152602060048201526011602482015270736c6963655f6f75744f66426f756e647360781b604482015290519081900360640190fd5b60608215801561404f5760405191506000825260208201604052614099565b6040519150601f8416801560200281840101858101878315602002848b0101015b81831015614088578051835260209283019201614070565b5050858452601f01601f1916604052505b50949350505050565b3390565b604080516001600160a01b038481166024830152604480830185905283518084039091018152606490920183526020820180516001600160e01b031663095ea7b360e01b1781529251825160009485949389169392918291908083835b602083106141225780518252601f199092019160209182019101614103565b6001836020036101000a0380198251168184511680821785525050505050509050019150506000604051808303816000865af19150503d8060008114614184576040519150601f19603f3d011682016040523d82523d6000602084013e614189565b606091505b50915091508180156141b75750805115806141b757508080602001905160208110156141b457600080fd5b50515b6118bd576040805162461bcd60e51b8152602060048201526002602482015261534160f01b604482015290519081900360640190fd5b80600281900b811461084757600080fd5b6000806000805b84518110156142815784818151811061421a57fe5b6020026020010151602001516001600160801b031685828151811061423b57fe5b60200260200101516000015160020b028301925084818151811061425b57fe5b6020026020010151602001516001600160801b0316820191508080600101915050614205565b5080828161428b57fe5b0592506000821280156142a657508082816142a257fe5b0715155b156142b357600019909201915b5050919050565b5160176013199091010490565b60006142fd7f00000000000000000000000000000000000000000000000000000000000000006142f886868661488b565b6148e1565b949350505050565b600080600080846001600160a01b0316633850c7bd6040518163ffffffff1660e01b815260040160e06040518083038186803b15801561434457600080fd5b505afa158015614358573d6000803e3d6000fd5b505050506040513d601f19601f8201168201806040525081019061437c919061543a565b50939750919550935050600161ffff841611915061439b905057600080fd5b600080866001600160a01b031663252c09d7856040518263ffffffff1660e01b81526004016143ca9190615aca565b60806040518083038186803b1580156143e257600080fd5b505afa1580156143f6573d6000803e3d6000fd5b505050506040513d601f19601f8201168201806040525081019061441a9190615626565b5050915091506144286134e8565b63ffffffff168263ffffffff161461444257849550614513565b60008361ffff1660018561ffff168761ffff1601038161445e57fe5b06905060008060008a6001600160a01b031663252c09d7856040518263ffffffff1660e01b81526004016144929190615ad9565b60806040518083038186803b1580156144aa57600080fd5b505afa1580156144be573d6000803e3d6000fd5b505050506040513d601f19601f820116820180604052508101906144e29190615626565b93505092509250806144f357600080fd5b82860363ffffffff811683870360060b8161450a57fe5b059a5050505050505b50505050915091565b60008063ffffffff831661455c576040805162461bcd60e51b8152602060048201526002602482015261042560f41b604482015290519081900360640190fd5b604080516002808252606082018352600092602083019080368337019050509050838160008151811061458b57fe5b602002602001019063ffffffff16908163ffffffff16815250506000816001815181106145b457fe5b63ffffffff90921660209283029190910182015260405163883bdbfd60e01b81526004810182815283516024830152835160009384936001600160a01b038b169363883bdbfd9388939192839260449091019185820191028083838b5b83811015614629578181015183820152602001614611565b505050509050019250505060006040518083038186803b15801561464c57600080fd5b505afa158015614660573d6000803e3d6000fd5b505050506040513d6000823e601f3d908101601f19168201604090815281101561468957600080fd5b81019080805160405193929190846401000000008211156146a957600080fd5b9083019060208201858111156146be57600080fd5b82518660208202830111640100000000821117156146db57600080fd5b82525081516020918201928201910280838360005b838110156147085781810151838201526020016146f0565b505050509050016040526020018051604051939291908464010000000082111561473157600080fd5b90830190602082018581111561474657600080fd5b825186602082028301116401000000008211171561476357600080fd5b82525081516020918201928201910280838360005b83811015614790578181015183820152602001614778565b50505050905001604052505050915091506000826000815181106147b057fe5b6020026020010151836001815181106147c557fe5b60200260200101510390506000826000815181106147df57fe5b6020026020010151836001815181106147f457fe5b60200260200101510390508763ffffffff168260060b8161481157fe5b05965060008260060b12801561483b57508763ffffffff168260060b8161483457fe5b0760060b15155b1561484857600019909601955b63ffffffff88166001600160a01b0302640100000000600160c01b03602083901b166001600160c01b0382168161487b57fe5b0496505050505050509250929050565b6148936149dc565b826001600160a01b0316846001600160a01b031611156148b1579192915b50604080516060810182526001600160a01b03948516815292909316602083015262ffffff169181019190915290565b600081602001516001600160a01b031682600001516001600160a01b03161061490957600080fd5b50805160208083015160409384015184516001600160a01b0394851681850152939091168385015262ffffff166060808401919091528351808403820181526080840185528051908301206001600160f81b031960a085015294901b6bffffffffffffffffffffffff191660a183015260b58201939093527f6ce8eb472fa82df5469c6ab6d485f17c3ad13c8cd7af59b3d4a8026c5ce0f7e260d5808301919091528251808303909101815260f5909101909152805191012090565b604080518082019091526000808252602082015290565b604080516060810182526000808252602082018190529181019190915290565b803561084781615c11565b60008083601f840112614a18578182fd5b5081356001600160401b03811115614a2e578182fd5b6020830191508360208083028501011115614a4857600080fd5b9250929050565b600082601f830112614a5f578081fd5b81356020614a74614a6f83615ba7565b615b84565b8281528181019085830183850287018401881015614a90578586fd5b855b85811015614ac25781356001600160801b0381168114614ab0578788fd5b84529284019290840190600101614a92565b5090979650505050505050565b8051801515811461084757600080fd5b600082601f830112614aef578081fd5b8135614afd614a6f82615bc4565b818152846020838601011115614b11578283fd5b816020850160208301379081016020019190915292915050565b80516001600160701b038116811461084757600080fd5b805161ffff8116811461084757600080fd5b803562ffffff8116811461084757600080fd5b803561084781615c35565b600060208284031215614b83578081fd5b8135614b8e81615c11565b9392505050565b600060208284031215614ba6578081fd5b8151614b8e81615c11565b60008060408385031215614bc3578081fd5b8235614bce81615c11565b91506020830135614bde81615c11565b809150509250929050565b60008060408385031215614bfb578182fd5b8251614c0681615c11565b6020840151909250614bde81615c11565b60008060408385031215614c29578182fd5b8235614c3481615c11565b946020939093013593505050565b600080600060608486031215614c56578081fd5b8335614c6181615c11565b9250602084013591506040840135614c7881615c11565b809150509250925092565b600080600080600060a08688031215614c9a578283fd5b8535614ca581615c11565b9450602086013593506040860135614cbc81615c11565b9250606086013591506080860135614cd381615c11565b809150509295509295909350565b60008060008060808587031215614cf6578182fd5b8435614d0181615c11565b935060208501359250604085013591506060850135614d1f81615c11565b939692955090935050565b60008060008060008060c08789031215614d42578384fd5b8635614d4d81615c11565b95506020870135945060408701359350606087013560ff81168114614d70578182fd5b9598949750929560808101359460a0909101359350915050565b600080600080600080600060a0888a031215614da4578485fd5b87356001600160401b0380821115614dba578687fd5b614dc68b838c01614a07565b909950975060208a0135915080821115614dde578687fd5b50614deb8a828b01614a07565b90965094505060408801359250606088013591506080880135614e0d81615c11565b8091505092959891949750929550565b60008060208385031215614e2f578182fd5b82356001600160401b03811115614e44578283fd5b614e5085828601614a07565b90969095509350505050565b60008060008060808587031215614e71578182fd5b84356001600160401b0380821115614e87578384fd5b818701915087601f830112614e9a578384fd5b81356020614eaa614a6f83615ba7565b82815281810190858301885b85811015614edf57614ecd8e8684358b0101614adf565b84529284019290840190600101614eb6565b50909950505088013592505080821115614ef7578384fd5b50614f0487828801614a4f565b935050614f1360408601614b54565b9150614f2160608601614b67565b905092959194509250565b60006020808385031215614f3e578182fd5b82516001600160401b03811115614f53578283fd5b8301601f81018513614f63578283fd5b8051614f71614a6f82615ba7565b8181528381019083850185840285018601891015614f8d578687fd5b8694505b83851015614faf578051835260019490940193918501918501614f91565b50979650505050505050565b600060208284031215614fcc578081fd5b614b8e82614acf565b600080600060408486031215614fe9578081fd5b8335925060208401356001600160401b03811115615005578182fd5b61501186828701614a07565b9497909650939450505050565b60006020828403121561502f578081fd5b81356001600160401b03811115615044578182fd5b6142fd84828501614adf565b600080600060608486031215615064578081fd5b83356001600160401b03811115615079578182fd5b61508586828701614adf565b93505061509460208501614b54565b91506040840135614c7881615c35565b6000602082840312156150b5578081fd5b8135614b8e81615c26565b600080604083850312156150d2578182fd5b505080516020909101519092909150565b600080600080606085870312156150f8578182fd5b843593506020850135925060408501356001600160401b038082111561511c578384fd5b818701915087601f83011261512f578384fd5b81358181111561513d578485fd5b88602082850101111561514e578485fd5b95989497505060200194505050565b60006020828403121561516e578081fd5b81516001600160401b03811115615183578182fd5b8201601f81018413615193578182fd5b80516151a1614a6f82615bc4565b8181528560208385010111156151b5578384fd5b610b27826020830160208601615be5565b6000602082840312156151d7578081fd5b81356001600160401b03808211156151ed578283fd5b9083019060808286031215615200578283fd5b60405160808101818110838211171561521557fe5b604052823582811115615226578485fd5b61523287828601614adf565b8252506020830135915061524582615c11565b816020820152604083013560408201526060830135606082015280935050505092915050565b600060e0828403121561527c578081fd5b60405160e081018181106001600160401b038211171561529857fe5b6040526152a4836149fc565b81526152b2602084016149fc565b60208201526152c360408401614b54565b60408201526152d4606084016149fc565b60608201526080830135608082015260a083013560a08201526152f960c084016149fc565b60c08201529392505050565b600060208284031215615316578081fd5b81356001600160401b0381111561532b578182fd5b820160808185031215614b8e578182fd5b600060e08284031215611b6e578081fd5b600060a08284031215611b6e578081fd5b60006101008284031215611b6e578081fd5b600060208284031215615381578081fd5b81356001600160401b0380821115615397578283fd5b90830190604082860312156153aa578283fd5b6040516040810181811083821117156153bf57fe5b6040528235828111156153d0578485fd5b6153dc87828601614adf565b825250602083013592506153ef83615c11565b6020810192909252509392505050565b600080600060608486031215615413578081fd5b61541c84614b2b565b925061542a60208501614b2b565b91506040840151614c7881615c35565b600080600080600080600060e0888a031215615454578081fd5b875161545f81615c11565b602089015190975061547081615c26565b955061547e60408901614b42565b945061548c60608901614b42565b935061549a60808901614b42565b925060a08801516154aa81615c35565b91506154b860c08901614acf565b905092959891949750929550565b6000602082840312156154d7578081fd5b614b8e82614b54565b6000602082840312156154f1578081fd5b5035919050565b600060208284031215615509578081fd5b5051919050565b60008060408385031215615522578182fd5b823591506020830135614bde81615c11565b60008060008060808587031215615549578182fd5b84359350602085013561555b81615c11565b9250604085013591506060850135614d1f81615c11565b600080600060608486031215615586578081fd5b83359250602084013591506040840135614c7881615c11565b6000806000606084860312156155b3578081fd5b83519250602084015191506040840151614c7881615c11565b6000806000806000608086880312156155e3578283fd5b853594506020860135935060408601356001600160401b03811115615606578384fd5b61561288828901614a07565b9094509250506060860135614cd381615c11565b6000806000806080858703121561563b578182fd5b845161564681615c35565b8094505060208501518060060b811461565d578283fd5b604086015190935061566e81615c11565b9150614f2160608601614acf565b6001600160a01b03169052565b60008284526020808501945082825b858110156156c65781356156ab81615c11565b6001600160a01b031687529582019590820190600101615698565b509495945050505050565b600081518084526156e9816020860160208601615be5565b601f01601f19169290920160200192915050565b60020b9052565b62ffffff169052565b606093841b6bffffffffffffffffffffffff19908116825260e89390931b6001600160e81b0319166014820152921b166017820152602b0190565b6000828483379101908152919050565b6000825161576a818460208701615be5565b9190910192915050565b6001600160a01b0391909116815260200190565b6001600160a01b0392831681529116602082015260400190565b6001600160a01b0393841681529183166020830152909116604082015260600190565b6001600160a01b03948516815292841660208401529216604082015262ffffff909116606082015260800190565b6001600160a01b039485168152928416602084015292166040820152606081019190915260800190565b6001600160a01b0388811682528716602082015260a06040820181905260009061584a9083018789615689565b82810360608401528481526001600160fb1b03851115615868578182fd5b602085028087602084013701602001908152608091909101919091529695505050505050565b6001600160a01b0386811682528515156020830152604082018590528316606082015260a060808201819052600090611db7908301846156d1565b6001600160a01b03929092168252602082015260400190565b600060018060a01b03861682528460208301526060604083015261590a606083018486615689565b9695505050505050565b6000602080830181845280855180835260408601915060408482028701019250838701855b8281101561596757603f198886030184526159558583516156d1565b94509285019290850190600101615939565b5092979650505050505050565b600060208252614b8e60208301846156d1565b602081016005831061599557fe5b91905290565b600060c082019050825182526020830151602083015260408301516040830152606083015160608301526080830151608083015260a083015160a083015292915050565b6000610160820190506159f382845161567c565b6020830151615a05602084018261567c565b506040830151615a186040840182615704565b506060830151615a2b60608401826156fd565b506080830151615a3e60808401826156fd565b5060a083015160a083015260c083015160c083015260e083015160e083015261010080840151818401525061012080840151615a7c8285018261567c565b505061014092830151919092015290565b600060208252825160406020840152615aa960608401826156d1565b602094909401516001600160a01b0316604093909301929092525090919050565b61ffff91909116815260200190565b90815260200190565b600085825284602083015260018060a01b03841660408301526080606083015261590a60808301846156d1565b9283526020830191909152604082015260600190565b93845260208401929092526040830152606082015260800190565b6000808335601e19843603018112615b56578283fd5b8301803591506001600160401b03821115615b6f578283fd5b602001915036819003821315614a4857600080fd5b6040518181016001600160401b0381118282101715615b9f57fe5b604052919050565b60006001600160401b03821115615bba57fe5b5060209081020190565b60006001600160401b03821115615bd757fe5b50601f01601f191660200190565b60005b83811015615c00578181015183820152602001615be8565b83811115610d6f5750506000910152565b6001600160a01b038116811461161657600080fd5b8060020b811461161657600080fd5b63ffffffff8116811461161657600080fdfe4f776e61626c653a206e6577206f776e657220697320746865207a65726f2061646472657373a2646970667358221220611ada76e836a92e734ab806052793af1a03f6a94e4e850972648f3134966f1064736f6c63430007060033",
  "linkReferences": {
    "libraries/SmartRouterHelper.sol": {
      "SmartRouterHelper": [
        {
          "length": 20,
          "start": 3569
        },
        {
          "length": 20,
          "start": 4148
        },
        {
          "length": 20,
          "start": 4352
        },
        {
          "length": 20,
          "start": 5067
        },
        {
          "length": 20,
          "start": 8289
        },
        {
          "length": 20,
          "start": 10786
        },
        {
          "length": 20,
          "start": 11331
        },
        {
          "length": 20,
          "start": 12838
        },
        {
          "length": 20,
          "start": 12979
        },
        {
          "length": 20,
          "start": 13400
        },
        {
          "length": 20,
          "start": 13595
        },
        {
          "length": 20,
          "start": 14389
        }
      ]
    }
  },
  "deployedLinkReferences": {
    "libraries/SmartRouterHelper.sol": {
      "SmartRouterHelper": [
        {
          "length": 20,
          "start": 2930
        },
        {
          "length": 20,
          "start": 3509
        },
        {
          "length": 20,
          "start": 3713
        },
        {
          "length": 20,
          "start": 4428
        },
        {
          "length": 20,
          "start": 7650
        },
        {
          "length": 20,
          "start": 10147
        },
        {
          "length": 20,
          "start": 10692
        },
        {
          "length": 20,
          "start": 12199
        },
        {
          "length": 20,
          "start": 12340
        },
        {
          "length": 20,
          "start": 12761
        },
        {
          "length": 20,
          "start": 12956
        },
        {
          "length": 20,
          "start": 13750
        }
      ]
    }
  }
}