{
  "_format": "hh-sol-artifact-1",
  "contractName": "NonfungiblePositionManager",
  "sourceName": "contracts/NonfungiblePositionManager.sol",
  "abi": [
    {
      "inputs": [
        {
          "internalType": "address",
          "name": "_deployer",
          "type": "address"
        },
        {
          "internalType": "address",
          "name": "_factory",
          "type": "address"
        },
        {
          "internalType": "address",
          "name": "_WETH9",
          "type": "address"
        },
        {
          "internalType": "address",
          "name": "_tokenDescriptor_",
          "type": "address"
        }
      ],
      "stateMutability": "nonpayable",
      "type": "constructor"
    },
    {
      "anonymous": false,
      "inputs": [
        {
          "indexed": true,
          "internalType": "address",
          "name": "owner",
          "type": "address"
        },
        {
          "indexed": true,
          "internalType": "address",
          "name": "approved",
          "type": "address"
        },
        {
          "indexed": true,
          "internalType": "uint256",
          "name": "tokenId",
          "type": "uint256"
        }
      ],
      "name": "Approval",
      "type": "event"
    },
    {
      "anonymous": false,
      "inputs": [
        {
          "indexed": true,
          "internalType": "address",
          "name": "owner",
          "type": "address"
        },
        {
          "indexed": true,
          "internalType": "address",
          "name": "operator",
          "type": "address"
        },
        {
          "indexed": false,
          "internalType": "bool",
          "name": "approved",
          "type": "bool"
        }
      ],
      "name": "ApprovalForAll",
      "type": "event"
    },
    {
      "anonymous": false,
      "inputs": [
        {
          "indexed": true,
          "internalType": "uint256",
          "name": "tokenId",
          "type": "uint256"
        },
        {
          "indexed": false,
          "internalType": "address",
          "name": "recipient",
          "type": "address"
        },
        {
          "indexed": false,
          "internalType": "uint256",
          "name": "amount0",
          "type": "uint256"
        },
        {
          "indexed": false,
          "internalType": "uint256",
          "name": "amount1",
          "type": "uint256"
        }
      ],
      "name": "Collect",
      "type": "event"
    },
    {
      "anonymous": false,
      "inputs": [
        {
          "indexed": true,
          "internalType": "uint256",
          "name": "tokenId",
          "type": "uint256"
        },
        {
          "indexed": false,
          "internalType": "uint128",
          "name": "liquidity",
          "type": "uint128"
        },
        {
          "indexed": false,
          "internalType": "uint256",
          "name": "amount0",
          "type": "uint256"
        },
        {
          "indexed": false,
          "internalType": "uint256",
          "name": "amount1",
          "type": "uint256"
        }
      ],
      "name": "DecreaseLiquidity",
      "type": "event"
    },
    {
      "anonymous": false,
      "inputs": [
        {
          "indexed": true,
          "internalType": "uint256",
          "name": "tokenId",
          "type": "uint256"
        },
        {
          "indexed": false,
          "internalType": "uint128",
          "name": "liquidity",
          "type": "uint128"
        },
        {
          "indexed": false,
          "internalType": "uint256",
          "name": "amount0",
          "type": "uint256"
        },
        {
          "indexed": false,
          "internalType": "uint256",
          "name": "amount1",
          "type": "uint256"
        }
      ],
      "name": "IncreaseLiquidity",
      "type": "event"
    },
    {
      "anonymous": false,
      "inputs": [
        {
          "indexed": true,
          "internalType": "address",
          "name": "from",
          "type": "address"
        },
        {
          "indexed": true,
          "internalType": "address",
          "name": "to",
          "type": "address"
        },
        {
          "indexed": true,
          "internalType": "uint256",
          "name": "tokenId",
          "type": "uint256"
        }
      ],
      "name": "Transfer",
      "type": "event"
    },
    {
      "inputs": [],
      "name": "DOMAIN_SEPARATOR",
      "outputs": [
        {
          "internalType": "bytes32",
          "name": "",
          "type": "bytes32"
        }
      ],
      "stateMutability": "view",
      "type": "function"
    },
    {
      "inputs": [],
      "name": "PERMIT_TYPEHASH",
      "outputs": [
        {
          "internalType": "bytes32",
          "name": "",
          "type": "bytes32"
        }
      ],
      "stateMutability": "view",
      "type": "function"
    },
    {
      "inputs": [],
      "name": "WETH9",
      "outputs": [
        {
          "internalType": "address",
          "name": "",
          "type": "address"
        }
      ],
      "stateMutability": "view",
      "type": "function"
    },
    {
      "inputs": [
        {
          "internalType": "address",
          "name": "to",
          "type": "address"
        },
        {
          "internalType": "uint256",
          "name": "tokenId",
          "type": "uint256"
        }
      ],
      "name": "approve",
      "outputs": [],
      "stateMutability": "nonpayable",
      "type": "function"
    },
    {
      "inputs": [
        {
          "internalType": "address",
          "name": "owner",
          "type": "address"
        }
      ],
      "name": "balanceOf",
      "outputs": [
        {
          "internalType": "uint256",
          "name": "",
          "type": "uint256"
        }
      ],
      "stateMutability": "view",
      "type": "function"
    },
    {
      "inputs": [],
      "name": "baseURI",
      "outputs": [
        {
          "internalType": "string",
          "name": "",
          "type": "string"
        }
      ],
      "stateMutability": "pure",
      "type": "function"
    },
    {
      "inputs": [
        {
          "internalType": "uint256",
          "name": "tokenId",
          "type": "uint256"
        }
      ],
      "name": "burn",
      "outputs": [],
      "stateMutability": "payable",
      "type": "function"
    },
    {
      "inputs": [
        {
          "components": [
            {
              "internalType": "uint256",
              "name": "tokenId",
              "type": "uint256"
            },
            {
              "internalType": "address",
              "name": "recipient",
              "type": "address"
            },
            {
              "internalType": "uint128",
              "name": "amount0Max",
              "type": "uint128"
            },
            {
              "internalType": "uint128",
              "name": "amount1Max",
              "type": "uint128"
            }
          ],
          "internalType": "struct INonfungiblePositionManager.CollectParams",
          "name": "params",
          "type": "tuple"
        }
      ],
      "name": "collect",
      "outputs": [
        {
          "internalType": "uint256",
          "name": "amount0",
          "type": "uint256"
        },
        {
          "internalType": "uint256",
          "name": "amount1",
          "type": "uint256"
        }
      ],
      "stateMutability": "payable",
      "type": "function"
    },
    {
      "inputs": [
        {
          "internalType": "address",
          "name": "token0",
          "type": "address"
        },
        {
          "internalType": "address",
          "name": "token1",
          "type": "address"
        },
        {
          "internalType": "uint24",
          "name": "fee",
          "type": "uint24"
        },
        {
          "internalType": "uint160",
          "name": "sqrtPriceX96",
          "type": "uint160"
        }
      ],
      "name": "createAndInitializePoolIfNecessary",
      "outputs": [
        {
          "internalType": "address",
          "name": "pool",
          "type": "address"
        }
      ],
      "stateMutability": "payable",
      "type": "function"
    },
    {
      "inputs": [
        {
          "components": [
            {
              "internalType": "uint256",
              "name": "tokenId",
              "type": "uint256"
            },
            {
              "internalType": "uint128",
              "name": "liquidity",
              "type": "uint128"
            },
            {
              "internalType": "uint256",
              "name": "amount0Min",
              "type": "uint256"
            },
            {
              "internalType": "uint256",
              "name": "amount1Min",
              "type": "uint256"
            },
            {
              "internalType": "uint256",
              "name": "deadline",
              "type": "uint256"
            }
          ],
          "internalType": "struct INonfungiblePositionManager.DecreaseLiquidityParams",
          "name": "params",
          "type": "tuple"
        }
      ],
      "name": "decreaseLiquidity",
      "outputs": [
        {
          "internalType": "uint256",
          "name": "amount0",
          "type": "uint256"
        },
        {
          "internalType": "uint256",
          "name": "amount1",
          "type": "uint256"
        }
      ],
      "stateMutability": "payable",
      "type": "function"
    },
    {
      "inputs": [],
      "name": "deployer",
      "outputs": [
        {
          "internalType": "address",
          "name": "",
          "type": "address"
        }
      ],
      "stateMutability": "view",
      "type": "function"
    },
    {
      "inputs": [],
      "name": "factory",
      "outputs": [
        {
          "internalType": "address",
          "name": "",
          "type": "address"
        }
      ],
      "stateMutability": "view",
      "type": "function"
    },
    {
      "inputs": [
        {
          "internalType": "uint256",
          "name": "tokenId",
          "type": "uint256"
        }
      ],
      "name": "getApproved",
      "outputs": [
        {
          "internalType": "address",
          "name": "",
          "type": "address"
        }
      ],
      "stateMutability": "view",
      "type": "function"
    },
    {
      "inputs": [
        {
          "components": [
            {
              "internalType": "uint256",
              "name": "tokenId",
              "type": "uint256"
            },
            {
              "internalType": "uint256",
              "name": "amount0Desired",
              "type": "uint256"
            },
            {
              "internalType": "uint256",
              "name": "amount1Desired",
              "type": "uint256"
            },
            {
              "internalType": "uint256",
              "name": "amount0Min",
              "type": "uint256"
            },
            {
              "internalType": "uint256",
              "name": "amount1Min",
              "type": "uint256"
            },
            {
              "internalType": "uint256",
              "name": "deadline",
              "type": "uint256"
            }
          ],
          "internalType": "struct INonfungiblePositionManager.IncreaseLiquidityParams",
          "name": "params",
          "type": "tuple"
        }
      ],
      "name": "increaseLiquidity",
      "outputs": [
        {
          "internalType": "uint128",
          "name": "liquidity",
          "type": "uint128"
        },
        {
          "internalType": "uint256",
          "name": "amount0",
          "type": "uint256"
        },
        {
          "internalType": "uint256",
          "name": "amount1",
          "type": "uint256"
        }
      ],
      "stateMutability": "payable",
      "type": "function"
    },
    {
      "inputs": [
        {
          "internalType": "address",
          "name": "owner",
          "type": "address"
        },
        {
          "internalType": "address",
          "name": "operator",
          "type": "address"
        }
      ],
      "name": "isApprovedForAll",
      "outputs": [
        {
          "internalType": "bool",
          "name": "",
          "type": "bool"
        }
      ],
      "stateMutability": "view",
      "type": "function"
    },
    {
      "inputs": [
        {
          "components": [
            {
              "internalType": "address",
              "name": "token0",
              "type": "address"
            },
            {
              "internalType": "address",
              "name": "token1",
              "type": "address"
            },
            {
              "internalType": "uint24",
              "name": "fee",
              "type": "uint24"
            },
            {
              "internalType": "int24",
              "name": "tickLower",
              "type": "int24"
            },
            {
              "internalType": "int24",
              "name": "tickUpper",
              "type": "int24"
            },
            {
              "internalType": "uint256",
              "name": "amount0Desired",
              "type": "uint256"
            },
            {
              "internalType": "uint256",
              "name": "amount1Desired",
              "type": "uint256"
            },
            {
              "internalType": "uint256",
              "name": "amount0Min",
              "type": "uint256"
            },
            {
              "internalType": "uint256",
              "name": "amount1Min",
              "type": "uint256"
            },
            {
              "internalType": "address",
              "name": "recipient",
              "type": "address"
            },
            {
              "internalType": "uint256",
              "name": "deadline",
              "type": "uint256"
            }
          ],
          "internalType": "struct INonfungiblePositionManager.MintParams",
          "name": "params",
          "type": "tuple"
        }
      ],
      "name": "mint",
      "outputs": [
        {
          "internalType": "uint256",
          "name": "tokenId",
          "type": "uint256"
        },
        {
          "internalType": "uint128",
          "name": "liquidity",
          "type": "uint128"
        },
        {
          "internalType": "uint256",
          "name": "amount0",
          "type": "uint256"
        },
        {
          "internalType": "uint256",
          "name": "amount1",
          "type": "uint256"
        }
      ],
      "stateMutability": "payable",
      "type": "function"
    },
    {
      "inputs": [
        {
          "internalType": "bytes[]",
          "name": "data",
          "type": "bytes[]"
        }
      ],
      "name": "multicall",
      "outputs": [
        {
          "internalType": "bytes[]",
          "name": "results",
          "type": "bytes[]"
        }
      ],
      "stateMutability": "payable",
      "type": "function"
    },
    {
      "inputs": [],
      "name": "name",
      "outputs": [
        {
          "internalType": "string",
          "name": "",
          "type": "string"
        }
      ],
      "stateMutability": "view",
      "type": "function"
    },
    {
      "inputs": [
        {
          "internalType": "uint256",
          "name": "tokenId",
          "type": "uint256"
        }
      ],
      "name": "ownerOf",
      "outputs": [
        {
          "internalType": "address",
          "name": "",
          "type": "address"
        }
      ],
      "stateMutability": "view",
      "type": "function"
    },
    {
      "inputs": [
        {
          "internalType": "uint256",
          "name": "amount0Owed",
          "type": "uint256"
        },
        {
          "internalType": "uint256",
          "name": "amount1Owed",
          "type": "uint256"
        },
        {
          "internalType": "bytes",
          "name": "data",
          "type": "bytes"
        }
      ],
      "name": "pancakeV3MintCallback",
      "outputs": [],
      "stateMutability": "nonpayable",
      "type": "function"
    },
    {
      "inputs": [
        {
          "internalType": "address",
          "name": "spender",
          "type": "address"
        },
        {
          "internalType": "uint256",
          "name": "tokenId",
          "type": "uint256"
        },
        {
          "internalType": "uint256",
          "name": "deadline",
          "type": "uint256"
        },
        {
          "internalType": "uint8",
          "name": "v",
          "type": "uint8"
        },
        {
          "internalType": "bytes32",
          "name": "r",
          "type": "bytes32"
        },
        {
          "internalType": "bytes32",
          "name": "s",
          "type": "bytes32"
        }
      ],
      "name": "permit",
      "outputs": [],
      "stateMutability": "payable",
      "type": "function"
    },
    {
      "inputs": [
        {
          "internalType": "uint256",
          "name": "tokenId",
          "type": "uint256"
        }
      ],
      "name": "positions",
      "outputs": [
        {
          "internalType": "uint96",
          "name": "nonce",
          "type": "uint96"
        },
        {
          "internalType": "address",
          "name": "operator",
          "type": "address"
        },
        {
          "internalType": "address",
          "name": "token0",
          "type": "address"
        },
        {
          "internalType": "address",
          "name": "token1",
          "type": "address"
        },
        {
          "internalType": "uint24",
          "name": "fee",
          "type": "uint24"
        },
        {
          "internalType": "int24",
          "name": "tickLower",
          "type": "int24"
        },
        {
          "internalType": "int24",
          "name": "tickUpper",
          "type": "int24"
        },
        {
          "internalType": "uint128",
          "name": "liquidity",
          "type": "uint128"
        },
        {
          "internalType": "uint256",
          "name": "feeGrowthInside0LastX128",
          "type": "uint256"
        },
        {
          "internalType": "uint256",
          "name": "feeGrowthInside1LastX128",
          "type": "uint256"
        },
        {
          "internalType": "uint128",
          "name": "tokensOwed0",
          "type": "uint128"
        },
        {
          "internalType": "uint128",
          "name": "tokensOwed1",
          "type": "uint128"
        }
      ],
      "stateMutability": "view",
      "type": "function"
    },
    {
      "inputs": [],
      "name": "refundETH",
      "outputs": [],
      "stateMutability": "payable",
      "type": "function"
    },
    {
      "inputs": [
        {
          "internalType": "address",
          "name": "from",
          "type": "address"
        },
        {
          "internalType": "address",
          "name": "to",
          "type": "address"
        },
        {
          "internalType": "uint256",
          "name": "tokenId",
          "type": "uint256"
        }
      ],
      "name": "safeTransferFrom",
      "outputs": [],
      "stateMutability": "nonpayable",
      "type": "function"
    },
    {
      "inputs": [
        {
          "internalType": "address",
          "name": "from",
          "type": "address"
        },
        {
          "internalType": "address",
          "name": "to",
          "type": "address"
        },
        {
          "internalType": "uint256",
          "name": "tokenId",
          "type": "uint256"
        },
        {
          "internalType": "bytes",
          "name": "_data",
          "type": "bytes"
        }
      ],
      "name": "safeTransferFrom",
      "outputs": [],
      "stateMutability": "nonpayable",
      "type": "function"
    },
    {
      "inputs": [
        {
          "internalType": "address",
          "name": "token",
          "type": "address"
        },
        {
          "internalType": "uint256",
          "name": "value",
          "type": "uint256"
        },
        {
          "internalType": "uint256",
          "name": "deadline",
          "type": "uint256"
        },
        {
          "internalType": "uint8",
          "name": "v",
          "type": "uint8"
        },
        {
          "internalType": "bytes32",
          "name": "r",
          "type": "bytes32"
        },
        {
          "internalType": "bytes32",
          "name": "s",
          "type": "bytes32"
        }
      ],
      "name": "selfPermit",
      "outputs": [],
      "stateMutability": "payable",
      "type": "function"
    },
    {
      "inputs": [
        {
          "internalType": "address",
          "name": "token",
          "type": "address"
        },
        {
          "internalType": "uint256",
          "name": "nonce",
          "type": "uint256"
        },
        {
          "internalType": "uint256",
          "name": "expiry",
          "type": "uint256"
        },
        {
          "internalType": "uint8",
          "name": "v",
          "type": "uint8"
        },
        {
          "internalType": "bytes32",
          "name": "r",
          "type": "bytes32"
        },
        {
          "internalType": "bytes32",
          "name": "s",
          "type": "bytes32"
        }
      ],
      "name": "selfPermitAllowed",
      "outputs": [],
      "stateMutability": "payable",
      "type": "function"
    },
    {
      "inputs": [
        {
          "internalType": "address",
          "name": "token",
          "type": "address"
        },
        {
          "internalType": "uint256",
          "name": "nonce",
          "type": "uint256"
        },
        {
          "internalType": "uint256",
          "name": "expiry",
          "type": "uint256"
        },
        {
          "internalType": "uint8",
          "name": "v",
          "type": "uint8"
        },
        {
          "internalType": "bytes32",
          "name": "r",
          "type": "bytes32"
        },
        {
          "internalType": "bytes32",
          "name": "s",
          "type": "bytes32"
        }
      ],
      "name": "selfPermitAllowedIfNecessary",
      "outputs": [],
      "stateMutability": "payable",
      "type": "function"
    },
    {
      "inputs": [
        {
          "internalType": "address",
          "name": "token",
          "type": "address"
        },
        {
          "internalType": "uint256",
          "name": "value",
          "type": "uint256"
        },
        {
          "internalType": "uint256",
          "name": "deadline",
          "type": "uint256"
        },
        {
          "internalType": "uint8",
          "name": "v",
          "type": "uint8"
        },
        {
          "internalType": "bytes32",
          "name": "r",
          "type": "bytes32"
        },
        {
          "internalType": "bytes32",
          "name": "s",
          "type": "bytes32"
        }
      ],
      "name": "selfPermitIfNecessary",
      "outputs": [],
      "stateMutability": "payable",
      "type": "function"
    },
    {
      "inputs": [
        {
          "internalType": "address",
          "name": "operator",
          "type": "address"
        },
        {
          "internalType": "bool",
          "name": "approved",
          "type": "bool"
        }
      ],
      "name": "setApprovalForAll",
      "outputs": [],
      "stateMutability": "nonpayable",
      "type": "function"
    },
    {
      "inputs": [
        {
          "internalType": "bytes4",
          "name": "interfaceId",
          "type": "bytes4"
        }
      ],
      "name": "supportsInterface",
      "outputs": [
        {
          "internalType": "bool",
          "name": "",
          "type": "bool"
        }
      ],
      "stateMutability": "view",
      "type": "function"
    },
    {
      "inputs": [
        {
          "internalType": "address",
          "name": "token",
          "type": "address"
        },
        {
          "internalType": "uint256",
          "name": "amountMinimum",
          "type": "uint256"
        },
        {
          "internalType": "address",
          "name": "recipient",
          "type": "address"
        }
      ],
      "name": "sweepToken",
      "outputs": [],
      "stateMutability": "payable",
      "type": "function"
    },
    {
      "inputs": [],
      "name": "symbol",
      "outputs": [
        {
          "internalType": "string",
          "name": "",
          "type": "string"
        }
      ],
      "stateMutability": "view",
      "type": "function"
    },
    {
      "inputs": [
        {
          "internalType": "uint256",
          "name": "index",
          "type": "uint256"
        }
      ],
      "name": "tokenByIndex",
      "outputs": [
        {
          "internalType": "uint256",
          "name": "",
          "type": "uint256"
        }
      ],
      "stateMutability": "view",
      "type": "function"
    },
    {
      "inputs": [
        {
          "internalType": "address",
          "name": "owner",
          "type": "address"
        },
        {
          "internalType": "uint256",
          "name": "index",
          "type": "uint256"
        }
      ],
      "name": "tokenOfOwnerByIndex",
      "outputs": [
        {
          "internalType": "uint256",
          "name": "",
          "type": "uint256"
        }
      ],
      "stateMutability": "view",
      "type": "function"
    },
    {
      "inputs": [
        {
          "internalType": "uint256",
          "name": "tokenId",
          "type": "uint256"
        }
      ],
      "name": "tokenURI",
      "outputs": [
        {
          "internalType": "string",
          "name": "",
          "type": "string"
        }
      ],
      "stateMutability": "view",
      "type": "function"
    },
    {
      "inputs": [],
      "name": "totalSupply",
      "outputs": [
        {
          "internalType": "uint256",
          "name": "",
          "type": "uint256"
        }
      ],
      "stateMutability": "view",
      "type": "function"
    },
    {
      "inputs": [
        {
          "internalType": "address",
          "name": "from",
          "type": "address"
        },
        {
          "internalType": "address",
          "name": "to",
          "type": "address"
        },
        {
          "internalType": "uint256",
          "name": "tokenId",
          "type": "uint256"
        }
      ],
      "name": "transferFrom",
      "outputs": [],
      "stateMutability": "nonpayable",
      "type": "function"
    },
    {
      "inputs": [
        {
          "internalType": "uint256",
          "name": "amountMinimum",
          "type": "uint256"
        },
        {
          "internalType": "address",
          "name": "recipient",
          "type": "address"
        }
      ],
      "name": "unwrapWETH9",
      "outputs": [],
      "stateMutability": "payable",
      "type": "function"
    },
    {
      "stateMutability": "payable",
      "type": "receive"
    }
  ],
  "bytecode": "0x610140604052600d80546001600160b01b0319166001176001600160b01b0316600160b01b1790553480156200003457600080fd5b506040516200600e3803806200600e8339810160408190526200005791620002e5565b8383836040518060400160405280601b81526020017f50616e63616b6520563320506f736974696f6e73204e46542d563100000000008152506040518060400160405280600a8152602001695043532d56332d504f5360b01b815250604051806040016040528060018152602001603160f81b8152508282620000e76301ffc9a760e01b6200019760201b60201c565b8151620000fc9060069060208501906200021c565b508051620001129060079060208401906200021c565b50620001256380ac58cd60e01b62000197565b62000137635b5e139f60e01b62000197565b6200014963780e9d6360e01b62000197565b50508251602093840120608052805192019190912060a052506001600160601b0319606093841b811660c05291831b821660e052821b81166101005291901b16610120525062000341915050565b6001600160e01b03198082161415620001f7576040805162461bcd60e51b815260206004820152601c60248201527f4552433136353a20696e76616c696420696e7465726661636520696400000000604482015290519081900360640190fd5b6001600160e01b0319166000908152602081905260409020805460ff19166001179055565b828054600181600116156101000203166002900490600052602060002090601f0160209004810192826200025457600085556200029f565b82601f106200026f57805160ff19168380011785556200029f565b828001600101855582156200029f579182015b828111156200029f57825182559160200191906001019062000282565b50620002ad929150620002b1565b5090565b5b80821115620002ad5760008155600101620002b2565b80516001600160a01b0381168114620002e057600080fd5b919050565b60008060008060808587031215620002fb578384fd5b6200030685620002c8565b93506200031660208601620002c8565b92506200032660408601620002c8565b91506200033660608601620002c8565b905092959194509250565b60805160a05160c05160601c60e05160601c6101005160601c6101205160601c615c3b620003d3600039806128c55250806102445280611671528061175c52806117e45280613b4d5280613b935280613c07525080610d8d5280610e545280612878525080610a25528061223152806129525280612c0552806134085250806114715250806114505250615c3b6000f3fe6080604052600436106102345760003560e01c80636352211e1161012e578063ac9650d8116100ab578063d5f394881161006f578063d5f3948814610679578063df2ab5bb1461068e578063e985e9c5146106a1578063f3995c67146106c1578063fc6f7865146106d4576102a4565b8063ac9650d8146105f1578063b88d4fde14610611578063c2e3140a14610631578063c45a015514610644578063c87b56dd14610659576102a4565b806395d89b41116100f257806395d89b411461055157806399eee9d01461056657806399fbab8814610586578063a22cb465146105be578063a4a78f0c146105de576102a4565b80636352211e146104c65780636c0360eb146104e657806370a08231146104fb5780637ac2ff7b1461051b578063883164561461052e576102a4565b806323b872dd116101bc57806342966c681161018057806342966c68146104585780634659a4941461046b57806349404b7c1461047e5780634aa4a4fc146104915780634f6ccce7146104a6576102a4565b806323b872dd146103ce5780632f745c59146103ee57806330adf81f1461040e5780633644e5151461042357806342842e0e14610438576102a4565b80630c49ccbe116102035780630c49ccbe1461034e57806312210e8a1461036f57806313ead5621461037757806318160ddd1461038a578063219f5d17146103ac576102a4565b806301ffc9a7146102a957806306fdde03146102df578063081812fc14610301578063095ea7b31461032e576102a4565b366102a457336001600160a01b037f000000000000000000000000000000000000000000000000000000000000000016146102a2576040805162461bcd60e51b81526020600482015260096024820152684e6f7420574554483960b81b604482015290519081900360640190fd5b005b600080fd5b3480156102b557600080fd5b506102c96102c4366004615123565b6106e7565b6040516102d6919061566c565b60405180910390f35b3480156102eb57600080fd5b506102f461070a565b6040516102d691906156bf565b34801561030d57600080fd5b5061032161031c366004615425565b6107a0565b6040516102d6919061554f565b34801561033a57600080fd5b506102a2610349366004614fe8565b6107f3565b61036161035c3660046151e8565b6108c9565b6040516102d6929190615846565b6102a2610d11565b610321610385366004614e7b565b610d23565b34801561039657600080fd5b5061039f61105f565b6040516102d69190615677565b6103bf6103ba3660046151f9565b611070565b6040516102d693929190615801565b3480156103da57600080fd5b506102a26103e9366004614ed4565b611385565b3480156103fa57600080fd5b5061039f610409366004614fe8565b6113dc565b34801561041a57600080fd5b5061039f611407565b34801561042f57600080fd5b5061039f61142b565b34801561044457600080fd5b506102a2610453366004614ed4565b6114e9565b6102a2610466366004615425565b611504565b6102a2610479366004615054565b6115d3565b6102a261048c36600461543d565b61166d565b34801561049d57600080fd5b506103216117e2565b3480156104b257600080fd5b5061039f6104c1366004615425565b611806565b3480156104d257600080fd5b506103216104e1366004615425565b61181c565b3480156104f257600080fd5b506102f4611844565b34801561050757600080fd5b5061039f610516366004614e27565b611849565b6102a2610529366004615054565b6118b1565b61054161053c3660046152b5565b611ca3565b6040516102d69493929190615822565b34801561055d57600080fd5b506102f46121bb565b34801561057257600080fd5b506102a2610581366004615484565b61221c565b34801561059257600080fd5b506105a66105a1366004615425565b61229a565b6040516102d69c9b9a99989796959493929190615854565b3480156105ca57600080fd5b506102a26105d9366004614fbb565b6124ab565b6102a26105ec366004615054565b6125b0565b6106046105ff3660046150b4565b612649565b6040516102d6919061560c565b34801561061d57600080fd5b506102a261062c366004614f14565b612789565b6102a261063f366004615054565b6127e7565b34801561065057600080fd5b50610321612876565b34801561066557600080fd5b506102f4610674366004615425565b61289a565b34801561068557600080fd5b50610321612950565b6102a261069c366004615013565b612974565b3480156106ad57600080fd5b506102c96106bc366004614e43565b612a4c565b6102a26106cf366004615054565b612a7a565b6103616106e23660046151d1565b612aec565b6001600160e01b0319811660009081526020819052604090205460ff165b919050565b60068054604080516020601f60026000196101006001881615020190951694909404938401819004810282018101909252828152606093909290918301828280156107965780601f1061076b57610100808354040283529160200191610796565b820191906000526020600020905b81548152906001019060200180831161077957829003601f168201915b5050505050905090565b60006107ab82612fb7565b6107d05760405162461bcd60e51b81526004016107c7906156f8565b60405180910390fd5b506000908152600c6020526040902054600160601b90046001600160a01b031690565b60006107fe8261181c565b9050806001600160a01b0316836001600160a01b031614156108515760405162461bcd60e51b8152600401808060200182810382526021815260200180615bb46021913960400191505060405180910390fd5b806001600160a01b0316610863612fc4565b6001600160a01b0316148061087f575061087f816106bc612fc4565b6108ba5760405162461bcd60e51b8152600401808060200182810382526038815260200180615ade6038913960400191505060405180910390fd5b6108c48383612fc8565b505050565b60008082356108d8338261303e565b6108f45760405162461bcd60e51b81526004016107c7906156d2565b8360800135806109026130da565b111561094b576040805162461bcd60e51b8152602060048201526013602482015272151c985b9cd858dd1a5bdb881d1bdbc81bdb19606a1b604482015290519081900360640190fd5b600061095d60408701602088016152c7565b6001600160801b03161161097057600080fd5b84356000908152600c602090815260409182902060018101549092600160801b9091046001600160801b0316916109ab9189019089016152c7565b6001600160801b0316816001600160801b031610156109c957600080fd5b6001828101546001600160501b03166000908152600b60209081526040808320815160608101835281546001600160a01b039081168252919095015490811692850192909252600160a01b90910462ffffff1690830152610a4a7f0000000000000000000000000000000000000000000000000000000000000000836130de565b60018501549091506001600160a01b0382169063a34123a790600160501b8104600290810b91600160681b9004900b610a8960408e0160208f016152c7565b6040518463ffffffff1660e01b8152600401610aa793929190615699565b6040805180830381600087803b158015610ac057600080fd5b505af1158015610ad4573d6000803e3d6000fd5b505050506040513d601f19601f82011682018060405250810190610af89190615461565b909850965060408901358810801590610b15575088606001358710155b610b315760405162461bcd60e51b81526004016107c790615744565b6001840154600090610b5a903090600160501b8104600290810b91600160681b9004900b6131bd565b9050600080836001600160a01b031663514ea4bf846040518263ffffffff1660e01b8152600401610b8b9190615677565b60a06040518083038186803b158015610ba357600080fd5b505afa158015610bb7573d6000803e3d6000fd5b505050506040513d601f19601f82011682018060405250810190610bdb9190615311565b50509250925050610c0087600201548303876001600160801b0316600160801b613212565b6004880180546001600160801b03198116928e016001600160801b039182160181169290921790556003880154610c4191908303908816600160801b613212565b6004880180546001600160801b03808216938e01600160801b9283900482160116029190911790556002870182905560038701819055610c8760408d0160208e016152c7565b86038760010160106101000a8154816001600160801b0302191690836001600160801b031602179055508b600001357f26f6a048ee9138f2c0ce266f322cb99228e8d619ae2bff30c67f8dcf9d2377b48d6020016020810190610cea91906152c7565b8d8d604051610cfb93929190615801565b60405180910390a2505050505050505050915091565b4715610d2157610d2133476132c1565b565b6000836001600160a01b0316856001600160a01b031610610d8b576040805162461bcd60e51b815260206004820152601f60248201527f546f6b656e30206d757374206265206c657373207468616e20746f6b656e3100604482015290519081900360640190fd5b7f00000000000000000000000000000000000000000000000000000000000000006001600160a01b0316631698ee828686866040518463ffffffff1660e01b815260040180846001600160a01b03168152602001836001600160a01b031681526020018262ffffff168152602001935050505060206040518083038186803b158015610e1657600080fd5b505afa158015610e2a573d6000803e3d6000fd5b505050506040513d6020811015610e4057600080fd5b505190506001600160a01b038116610f76577f00000000000000000000000000000000000000000000000000000000000000006001600160a01b031663a16712958686866040518463ffffffff1660e01b815260040180846001600160a01b03168152602001836001600160a01b031681526020018262ffffff1681526020019350505050602060405180830381600087803b158015610edf57600080fd5b505af1158015610ef3573d6000803e3d6000fd5b505050506040513d6020811015610f0957600080fd5b50516040805163f637731d60e01b81526001600160a01b03858116600483015291519293509083169163f637731d9160248082019260009290919082900301818387803b158015610f5957600080fd5b505af1158015610f6d573d6000803e3d6000fd5b50505050611057565b6000816001600160a01b0316633850c7bd6040518163ffffffff1660e01b815260040160e06040518083038186803b158015610fb157600080fd5b505afa158015610fc5573d6000803e3d6000fd5b505050506040513d60e0811015610fdb57600080fd5b505190506001600160a01b03811661105557816001600160a01b031663f637731d846040518263ffffffff1660e01b815260040180826001600160a01b03168152602001915050600060405180830381600087803b15801561103c57600080fd5b505af1158015611050573d6000803e3d6000fd5b505050505b505b949350505050565b600061106b60026133b0565b905090565b60008060008360a00135806110836130da565b11156110cc576040805162461bcd60e51b8152602060048201526013602482015272151c985b9cd858dd1a5bdb881d1bdbc81bdb19606a1b604482015290519081900360640190fd5b84356000908152600c602090815260408083206001808201546001600160501b0381168652600b855283862084516060808201875282546001600160a01b039081168352929094015480831682890190815262ffffff600160a01b9092048216838901908152885161014081018a528451861681529151909416818a0152925116828701523082850152600160501b8304600290810b810b608080850191909152600160681b909404810b900b60a0830152958c013560c0820152938b013560e0850152908a013561010084015289013561012083015292906111ae906133bb565b6001870154939a50919850965091506000906111e1903090600160501b8104600290810b91600160681b9004900b6131bd565b9050600080836001600160a01b031663514ea4bf846040518263ffffffff1660e01b81526004016112129190615677565b60a06040518083038186803b15801561122a57600080fd5b505afa15801561123e573d6000803e3d6000fd5b505050506040513d601f19601f820116820180604052508101906112629190615311565b5050925092505061129e866002015483038760010160109054906101000a90046001600160801b03166001600160801b0316600160801b613212565b6004870180546001600160801b0380821690930183166001600160801b0319909116179055600387015460018801546112e59291840391600160801b918290041690613212565b6004870180546001600160801b03600160801b80830482169094018116840291811691909117909155600288018490556003880183905560018801805483810483168e018316909302929091169190911790556040518b35907f3067048beee31b25b2f1681f88dac838c8bba36af25bfb2b7cf7473a5847e35f9061136f908d908d908d90615801565b60405180910390a2505050505050509193909250565b611396611390612fc4565b8261303e565b6113d15760405162461bcd60e51b8152600401808060200182810382526031815260200180615bd56031913960400191505060405180910390fd5b6108c4838383613689565b6001600160a01b03821660009081526001602052604081206113fe90836137d5565b90505b92915050565b7f49ecf333e5b8c95c40fdafc95c1ad136e8914a8fb55e9dc8bb01eaa83a2df9ad81565b60007f8b73c3c69bb8fe3d512ecc4cf759cc79239f7b179b0ffacaa9a75d522b39400f7f00000000000000000000000000000000000000000000000000000000000000007f00000000000000000000000000000000000000000000000000000000000000006114986137e1565b3060405160200180868152602001858152602001848152602001838152602001826001600160a01b031681526020019550505050505060405160208183030381529060405280519060200120905090565b6108c483838360405180602001604052806000815250612789565b8061150f338261303e565b61152b5760405162461bcd60e51b81526004016107c7906156d2565b6000828152600c602052604090206001810154600160801b90046001600160801b0316158015611566575060048101546001600160801b0316155b801561158457506004810154600160801b90046001600160801b0316155b6115a05760405162461bcd60e51b81526004016107c79061579c565b6000838152600c60205260408120818155600181018290556002810182905560038101829055600401556108c4836137e5565b604080516323f2ebc360e21b815233600482015230602482015260448101879052606481018690526001608482015260ff851660a482015260c4810184905260e4810183905290516001600160a01b03881691638fcbaf0c9161010480830192600092919082900301818387803b15801561164d57600080fd5b505af1158015611661573d6000803e3d6000fd5b50505050505050505050565b60007f00000000000000000000000000000000000000000000000000000000000000006001600160a01b03166370a08231306040518263ffffffff1660e01b815260040180826001600160a01b0316815260200191505060206040518083038186803b1580156116dc57600080fd5b505afa1580156116f0573d6000803e3d6000fd5b505050506040513d602081101561170657600080fd5b5051905082811015611754576040805162461bcd60e51b8152602060048201526012602482015271496e73756666696369656e7420574554483960701b604482015290519081900360640190fd5b80156108c4577f00000000000000000000000000000000000000000000000000000000000000006001600160a01b0316632e1a7d4d826040518263ffffffff1660e01b815260040180828152602001915050600060405180830381600087803b1580156117c057600080fd5b505af11580156117d4573d6000803e3d6000fd5b505050506108c482826132c1565b7f000000000000000000000000000000000000000000000000000000000000000081565b6000806118146002846138b2565b509392505050565b600061140182604051806060016040528060298152602001615b4060299139600291906138d0565b606090565b60006001600160a01b0382166118905760405162461bcd60e51b815260040180806020018281038252602a815260200180615b16602a913960400191505060405180910390fd5b6001600160a01b0382166000908152600160205260409020611401906133b0565b836118ba6130da565b11156118fe576040805162461bcd60e51b815260206004820152600e60248201526d14195c9b5a5d08195e1c1a5c995960921b604482015290519081900360640190fd5b600061190861142b565b7f49ecf333e5b8c95c40fdafc95c1ad136e8914a8fb55e9dc8bb01eaa83a2df9ad8888611934816138dd565b604080516020808201969096526001600160a01b03909416848201526060840192909252608083015260a08083018a90528151808403909101815260c08301825280519084012061190160f01b60e084015260e2830194909452610102808301949094528051808303909401845261012290910190528151910120905060006119bc8761181c565b9050806001600160a01b0316886001600160a01b03161415611a0f5760405162461bcd60e51b8152600401808060200182810382526027815260200180615a416027913960400191505060405180910390fd5b611a1881613912565b15611b80576040805160208082018790528183018690526001600160f81b031960f889901b1660608301528251604181840301815260618301808552630b135d3f60e11b90526065830186815260858401948552815160a585015281516001600160a01b03871695631626ba7e958995919260c59091019185019080838360005b83811015611ab1578181015183820152602001611a99565b50505050905090810190601f168015611ade5780820380516001836020036101000a031916815260200191505b50935050505060206040518083038186803b158015611afc57600080fd5b505afa158015611b10573d6000803e3d6000fd5b505050506040513d6020811015611b2657600080fd5b50516001600160e01b031916630b135d3f60e11b14611b7b576040805162461bcd60e51b815260206004820152600c60248201526b155b985d5d1a1bdc9a5e995960a21b604482015290519081900360640190fd5b611c8f565b600060018387878760405160008152602001604052604051808581526020018460ff1681526020018381526020018281526020019450505050506020604051602081039080840390855afa158015611bdc573d6000803e3d6000fd5b5050604051601f1901519150506001600160a01b038116611c38576040805162461bcd60e51b8152602060048201526011602482015270496e76616c6964207369676e617475726560781b604482015290519081900360640190fd5b816001600160a01b0316816001600160a01b031614611c8d576040805162461bcd60e51b815260206004820152600c60248201526b155b985d5d1a1bdc9a5e995960a21b604482015290519081900360640190fd5b505b611c998888612fc8565b5050505050505050565b60008060008084610140013580611cb86130da565b1115611d01576040805162461bcd60e51b8152602060048201526013602482015272151c985b9cd858dd1a5bdb881d1bdbc81bdb19606a1b604482015290519081900360640190fd5b604080516101408101909152600090611dcd9080611d2260208b018b614e27565b6001600160a01b03168152602001896020016020810190611d439190614e27565b6001600160a01b03168152602001611d6160608b0160408c0161540b565b62ffffff168152306020820152604001611d8160808b0160608c0161514b565b60020b8152602001611d9960a08b0160808c0161514b565b60020b81526020018960a0013581526020018960c0013581526020018960e0013581526020018961010001358152506133bb565b92975090955093509050611e1a611dec61014089016101208a01614e27565b600d80546001600160b01b0319811660016001600160b01b0392831690810190921617909155975087613918565b6000611e4530611e3060808b0160608c0161514b565b611e4060a08c0160808d0161514b565b6131bd565b9050600080836001600160a01b031663514ea4bf846040518263ffffffff1660e01b8152600401611e769190615677565b60a06040518083038186803b158015611e8e57600080fd5b505afa158015611ea2573d6000803e3d6000fd5b505050506040513d601f19601f82011682018060405250810190611ec69190615311565b505092509250506000611f3f8560405180606001604052808e6000016020810190611ef19190614e27565b6001600160a01b031681526020018e6020016020810190611f129190614e27565b6001600160a01b031681526020018e6040016020810190611f33919061540b565b62ffffff169052613a46565b905060405180610140016040528060006001600160601b0316815260200160006001600160a01b03168152602001826001600160501b031681526020018c6060016020810190611f8f919061514b565b60020b8152602001611fa760a08e0160808f0161514b565b60020b81526020018a6001600160801b0316815260200184815260200183815260200160006001600160801b0316815260200160006001600160801b0316815250600c60008c815260200190815260200160002060008201518160000160006101000a8154816001600160601b0302191690836001600160601b03160217905550602082015181600001600c6101000a8154816001600160a01b0302191690836001600160a01b0316021790555060408201518160010160006101000a8154816001600160501b0302191690836001600160501b03160217905550606082015181600101600a6101000a81548162ffffff021916908360020b62ffffff160217905550608082015181600101600d6101000a81548162ffffff021916908360020b62ffffff16021790555060a08201518160010160106101000a8154816001600160801b0302191690836001600160801b0316021790555060c0820151816002015560e082015181600301556101008201518160040160006101000a8154816001600160801b0302191690836001600160801b031602179055506101208201518160040160106101000a8154816001600160801b0302191690836001600160801b03160217905550905050897f3067048beee31b25b2f1681f88dac838c8bba36af25bfb2b7cf7473a5847e35f8a8a8a6040516121a693929190615801565b60405180910390a25050505050509193509193565b60078054604080516020601f60026000196101006001881615020190951694909404938401819004810282018101909252828152606093909290918301828280156107965780601f1061076b57610100808354040283529160200191610796565b600061222a8284018461520a565b905061225a7f00000000000000000000000000000000000000000000000000000000000000008260000151613b28565b50841561227557805151602082015161227591903388613b4b565b83156122935761229381600001516020015182602001513387613b4b565b5050505050565b6000818152600c6020908152604080832081516101408101835281546001600160601b03811682526001600160a01b03600160601b909104169381019390935260018101546001600160501b038116928401839052600160501b8104600290810b810b810b6060860152600160681b8204810b810b810b60808601526001600160801b03600160801b92839004811660a08701529083015460c0860152600383015460e08601526004909201548083166101008601520416610120830152829182918291829182918291829182918291829182919061238b5760405162461bcd60e51b81526004016107c790615772565b6000600b600083604001516001600160501b03166001600160501b031681526020019081526020016000206040518060600160405290816000820160009054906101000a90046001600160a01b03166001600160a01b03166001600160a01b031681526020016001820160009054906101000a90046001600160a01b03166001600160a01b03166001600160a01b031681526020016001820160149054906101000a900462ffffff1662ffffff1662ffffff1681525050905081600001518260200151826000015183602001518460400151866060015187608001518860a001518960c001518a60e001518b61010001518c61012001519d509d509d509d509d509d509d509d509d509d509d509d50505091939597999b5091939597999b565b6124b3612fc4565b6001600160a01b0316826001600160a01b03161415612519576040805162461bcd60e51b815260206004820152601960248201527f4552433732313a20617070726f766520746f2063616c6c657200000000000000604482015290519081900360640190fd5b8060056000612526612fc4565b6001600160a01b03908116825260208083019390935260409182016000908120918716808252919093529120805460ff19169215159290921790915561256a612fc4565b6001600160a01b03167f17307eab39ab6107e8899845ad3d59bd9653f200f220920489ca2b5937696c318360405180821515815260200191505060405180910390a35050565b60408051636eb1769f60e11b81523360048201523060248201529051600019916001600160a01b0389169163dd62ed3e91604480820192602092909190829003018186803b15801561260157600080fd5b505afa158015612615573d6000803e3d6000fd5b505050506040513d602081101561262b57600080fd5b50511015612641576126418686868686866115d3565b505050505050565b60608167ffffffffffffffff8111801561266257600080fd5b5060405190808252806020026020018201604052801561269657816020015b60608152602001906001900390816126815790505b50905060005b8281101561278257600080308686858181106126b457fe5b90506020028101906126c691906158ee565b6040516126d492919061553f565b600060405180830381855af49150503d806000811461270f576040519150601f19603f3d011682016040523d82523d6000602084013e612714565b606091505b5091509150816127605760448151101561272d57600080fd5b600481019050808060200190518101906127479190615167565b60405162461bcd60e51b81526004016107c791906156bf565b8084848151811061276d57fe5b6020908102919091010152505060010161269c565b5092915050565b61279a612794612fc4565b8361303e565b6127d55760405162461bcd60e51b8152600401808060200182810382526031815260200180615bd56031913960400191505060405180910390fd5b6127e184848484613cdb565b50505050565b60408051636eb1769f60e11b8152336004820152306024820152905186916001600160a01b0389169163dd62ed3e91604480820192602092909190829003018186803b15801561283657600080fd5b505afa15801561284a573d6000803e3d6000fd5b505050506040513d602081101561286057600080fd5b5051101561264157612641868686868686612a7a565b7f000000000000000000000000000000000000000000000000000000000000000081565b60606128a582612fb7565b6128ae57600080fd5b60405163e9dc637560e01b81526001600160a01b037f0000000000000000000000000000000000000000000000000000000000000000169063e9dc6375906128fc9030908690600401615680565b60006040518083038186803b15801561291457600080fd5b505afa158015612928573d6000803e3d6000fd5b505050506040513d6000823e601f3d908101601f191682016040526114019190810190615167565b7f000000000000000000000000000000000000000000000000000000000000000081565b6000836001600160a01b03166370a08231306040518263ffffffff1660e01b815260040180826001600160a01b0316815260200191505060206040518083038186803b1580156129c357600080fd5b505afa1580156129d7573d6000803e3d6000fd5b505050506040513d60208110156129ed57600080fd5b5051905082811015612a3b576040805162461bcd60e51b815260206004820152601260248201527124b739bab33334b1b4b2b73a103a37b5b2b760711b604482015290519081900360640190fd5b80156127e1576127e1848383613d2d565b6001600160a01b03918216600090815260056020908152604080832093909416825291909152205460ff1690565b6040805163d505accf60e01b8152336004820152306024820152604481018790526064810186905260ff8516608482015260a4810184905260c4810183905290516001600160a01b0388169163d505accf9160e480830192600092919082900301818387803b15801561164d57600080fd5b6000808235612afb338261303e565b612b175760405162461bcd60e51b81526004016107c7906156d2565b6000612b2960608601604087016152c7565b6001600160801b03161180612b5657506000612b4b60808601606087016152c7565b6001600160801b0316115b612b5f57600080fd5b600080612b726040870160208801614e27565b6001600160a01b031614612b9557612b906040860160208701614e27565b612b97565b305b85356000908152600c602090815260408083206001808201546001600160501b03168552600b8452828520835160608101855281546001600160a01b039081168252919092015490811694820194909452600160a01b90930462ffffff169183019190915292935090612c2a7f0000000000000000000000000000000000000000000000000000000000000000836130de565b600484015460018501549192506001600160801b0380821692600160801b9283900482169290041615612e2057600185015460405163a34123a760e01b81526001600160a01b0385169163a34123a791612ca191600160501b8104600290810b92600160681b909204900b90600090600401615699565b6040805180830381600087803b158015612cba57600080fd5b505af1158015612cce573d6000803e3d6000fd5b505050506040513d601f19601f82011682018060405250810190612cf29190615461565b5050600185015460009081906001600160a01b0386169063514ea4bf90612d30903090600160501b8104600290810b91600160681b9004900b6131bd565b6040518263ffffffff1660e01b8152600401612d4c9190615677565b60a06040518083038186803b158015612d6457600080fd5b505afa158015612d78573d6000803e3d6000fd5b505050506040513d601f19601f82011682018060405250810190612d9c9190615311565b50509250925050612dd8876002015483038860010160109054906101000a90046001600160801b03166001600160801b0316600160801b613212565b84019350612e11876003015482038860010160109054906101000a90046001600160801b03166001600160801b0316600160801b613212565b60028801929092556003870155015b6000806001600160801b038416612e3d60608e0160408f016152c7565b6001600160801b031611612e6057612e5b60608d0160408e016152c7565b612e62565b835b836001600160801b03168d6060016020810190612e7f91906152c7565b6001600160801b031611612ea257612e9d60808e0160608f016152c7565b612ea4565b835b60018901546040516309e3d67b60e31b81529294509092506001600160a01b03871691634f1eb3d891612ef7918c91600160501b8104600290810b92600160681b909204900b90889088906004016155a5565b6040805180830381600087803b158015612f1057600080fd5b505af1158015612f24573d6000803e3d6000fd5b505050506040513d601f19601f82011682018060405250810190612f4891906152e3565b6004890180546001600160801b03196001600160801b03918216600160801b878a0384160217168689038216179091556040519281169d50169a508c35907f40d0efd1a53d60ecbf40971b9daf7dc90178c3aadc7aab1765632738fa8b8f0190610cfb908b90869086906155e2565b6000611401600283613e74565b3390565b6000818152600c6020526040902080546001600160601b0316600160601b6001600160a01b0385169081029190911790915581906130058261181c565b6001600160a01b03167f8c5be1e5ebec7d5bd14f71427d1e84f3dd0314c0f7b2291e5b200ac8c7c3b92560405160405180910390a45050565b600061304982612fb7565b6130845760405162461bcd60e51b815260040180806020018281038252602c815260200180615ab2602c913960400191505060405180910390fd5b600061308f8361181c565b9050806001600160a01b0316846001600160a01b031614806130ca5750836001600160a01b03166130bf846107a0565b6001600160a01b0316145b8061105757506110578185612a4c565b4290565b600081602001516001600160a01b031682600001516001600160a01b03161061310657600080fd5b50805160208083015160409384015184516001600160a01b0394851681850152939091168385015262ffffff166060808401919091528351808403820181526080840185528051908301206001600160f81b031960a085015294901b6001600160601b03191660a183015260b58201939093527f4476a5db7f4f28f9c9f13023d288574c64582b618dff2ce9d9ff1b76fd8972be60d5808301919091528251808303909101815260f5909101909152805191012090565b604080516001600160601b0319606086901b16602080830191909152600285810b60e890811b60348501529085900b901b60378301528251601a818403018152603a90920190925280519101205b9392505050565b6000808060001985870986860292508281109083900303905080613248576000841161323d57600080fd5b50829004905061320b565b80841161325457600080fd5b6000848688096000868103871696879004966002600389028118808a02820302808a02820302808a02820302808a02820302808a02820302808a02909103029181900381900460010186841190950394909402919094039290920491909117919091029150509392505050565b604080516000808252602082019092526001600160a01b0384169083906040518082805190602001908083835b6020831061330d5780518252601f1990920191602091820191016132ee565b6001836020036101000a03801982511681845116808217855250505050505090500191505060006040518083038185875af1925050503d806000811461336f576040519150601f19603f3d011682016040523d82523d6000602084013e613374565b606091505b50509050806108c4576040805162461bcd60e51b815260206004820152600360248201526253544560e81b604482015290519081900360640190fd5b600061140182613e80565b6000806000806000604051806060016040528087600001516001600160a01b0316815260200187602001516001600160a01b03168152602001876040015162ffffff16815250905061342d7f0000000000000000000000000000000000000000000000000000000000000000826130de565b91506000826001600160a01b0316633850c7bd6040518163ffffffff1660e01b815260040160e06040518083038186803b15801561346a57600080fd5b505afa15801561347e573d6000803e3d6000fd5b505050506040513d601f19601f820116820180604052508101906134a29190615372565b505050505050905060006134b98860800151613e84565b905060006134ca8960a00151613e84565b90506134e18383838c60c001518d60e001516141b6565b9750505050816001600160a01b0316633c8a7d8d876060015188608001518960a00151896040518060400160405280888152602001336001600160a01b031681525060405160200161353391906157c1565b6040516020818303038152906040526040518663ffffffff1660e01b8152600401613562959493929190615563565b6040805180830381600087803b15801561357b57600080fd5b505af115801561358f573d6000803e3d6000fd5b505050506040513d601f19601f820116820180604052508101906135b39190615461565b60408051808201909152600c81526b02634b8bab4b234ba3c9016960a51b602082015291955093506135e49061427a565b6135f6856001600160801b0316614323565b61362d6040518060400160405280601681526020017520b6b7bab73a39903337b91031b7b6b830b934b9b7b760511b81525061427a565b61363c84876101000151614364565b61364b83876101200151614364565b856101000151841015801561366557508561012001518310155b6136815760405162461bcd60e51b81526004016107c790615744565b509193509193565b826001600160a01b031661369c8261181c565b6001600160a01b0316146136e15760405162461bcd60e51b8152600401808060200182810382526029815260200180615b8b6029913960400191505060405180910390fd5b6001600160a01b0382166137265760405162461bcd60e51b8152600401808060200182810382526024815260200180615a686024913960400191505060405180910390fd5b6137318383836108c4565b61373c600082612fc8565b6001600160a01b038316600090815260016020526040902061375e90826143b0565b506001600160a01b038216600090815260016020526040902061378190826143bc565b5061378e600282846143c8565b5080826001600160a01b0316846001600160a01b03167fddf252ad1be2c89b69c2b068fc378daa952ba7f163c4a11628f55a4df523b3ef60405160405180910390a4505050565b60006113fe83836143de565b4690565b60006137f08261181c565b90506137fe816000846108c4565b613809600083612fc8565b600082815260086020526040902054600260001961010060018416150201909116041561384757600082815260086020526040812061384791614d9f565b6001600160a01b038116600090815260016020526040902061386990836143b0565b50613875600283614442565b5060405182906000906001600160a01b038416907fddf252ad1be2c89b69c2b068fc378daa952ba7f163c4a11628f55a4df523b3ef908390a45050565b60008080806138c1868661444e565b909450925050505b9250929050565b60006110578484846144c9565b6000908152600c6020526040902080546001600160601b0319811660016001600160601b039283169081019092161790915590565b3b151590565b6001600160a01b038216613973576040805162461bcd60e51b815260206004820181905260248201527f4552433732313a206d696e7420746f20746865207a65726f2061646472657373604482015290519081900360640190fd5b61397c81612fb7565b156139ce576040805162461bcd60e51b815260206004820152601c60248201527f4552433732313a20746f6b656e20616c7265616479206d696e74656400000000604482015290519081900360640190fd5b6139da600083836108c4565b6001600160a01b03821660009081526001602052604090206139fc90826143bc565b50613a09600282846143c8565b5060405181906001600160a01b038416906000907fddf252ad1be2c89b69c2b068fc378daa952ba7f163c4a11628f55a4df523b3ef908290a45050565b6001600160a01b0382166000908152600a60205260409020546001600160501b0316806114015750600d805460016001600160501b03600160b01b8084048216838101909216026001600160b01b03909316929092179092556001600160a01b038085166000908152600a60209081526040808320805469ffffffffffffffffffff191686179055848352600b825291829020865181549085166001600160a01b031991821617825591870151950180549287015162ffffff16600160a01b0262ffffff60a01b19969094169290911691909117939093161790915592915050565b6000613b3483836130de565b9050336001600160a01b0382161461140157600080fd5b7f00000000000000000000000000000000000000000000000000000000000000006001600160a01b0316846001600160a01b0316148015613b8c5750804710155b15613cae577f00000000000000000000000000000000000000000000000000000000000000006001600160a01b031663d0e30db0826040518263ffffffff1660e01b81526004016000604051808303818588803b158015613bec57600080fd5b505af1158015613c00573d6000803e3d6000fd5b50505050507f00000000000000000000000000000000000000000000000000000000000000006001600160a01b031663a9059cbb83836040518363ffffffff1660e01b815260040180836001600160a01b0316815260200182815260200192505050602060405180830381600087803b158015613c7c57600080fd5b505af1158015613c90573d6000803e3d6000fd5b505050506040513d6020811015613ca657600080fd5b506127e19050565b6001600160a01b038316301415613ccf57613cca848383613d2d565b6127e1565b6127e184848484614593565b613ce6848484613689565b613cf2848484846146e3565b6127e15760405162461bcd60e51b8152600401808060200182810382526032815260200180615a0f6032913960400191505060405180910390fd5b604080516001600160a01b038481166024830152604480830185905283518084039091018152606490920183526020820180516001600160e01b031663a9059cbb60e01b1781529251825160009485949389169392918291908083835b60208310613da95780518252601f199092019160209182019101613d8a565b6001836020036101000a0380198251168184511680821785525050505050509050019150506000604051808303816000865af19150503d8060008114613e0b576040519150601f19603f3d011682016040523d82523d6000602084013e613e10565b606091505b5091509150818015613e3e575080511580613e3e5750808060200190516020811015613e3b57600080fd5b50515b612293576040805162461bcd60e51b815260206004820152600260248201526114d560f21b604482015290519081900360640190fd5b60006113fe838361484b565b5490565b60008060008360020b12613e9b578260020b613ea3565b8260020b6000035b9050620d89e8811115613ee1576040805162461bcd60e51b81526020600482015260016024820152601560fa1b604482015290519081900360640190fd5b600060018216613ef557600160801b613f07565b6ffffcb933bd6fad37aa2d162d1a5940015b70ffffffffffffffffffffffffffffffffff1690506002821615613f3b576ffff97272373d413259a46990580e213a0260801c5b6004821615613f5a576ffff2e50f5f656932ef12357cf3c7fdcc0260801c5b6008821615613f79576fffe5caca7e10e4e61c3624eaa0941cd00260801c5b6010821615613f98576fffcb9843d60f6159c9db58835c9266440260801c5b6020821615613fb7576fff973b41fa98c081472e6896dfb254c00260801c5b6040821615613fd6576fff2ea16466c96a3843ec78b326b528610260801c5b6080821615613ff5576ffe5dee046a99a2a811c461f1969c30530260801c5b610100821615614015576ffcbe86c7900a88aedcffc83b479aa3a40260801c5b610200821615614035576ff987a7253ac413176f2b074cf7815e540260801c5b610400821615614055576ff3392b0822b70005940c7a398e4b70f30260801c5b610800821615614075576fe7159475a2c29b7443b29c7fa6e889d90260801c5b611000821615614095576fd097f3bdfd2022b8845ad8f792aa58250260801c5b6120008216156140b5576fa9f746462d870fdf8a65dc1f90e061e50260801c5b6140008216156140d5576f70d869a156d2a1b890bb3df62baf32f70260801c5b6180008216156140f5576f31be135f97d08fd981231505542fcfa60260801c5b62010000821615614116576f09aa508b5b7a84e1c677de54f3e99bc90260801c5b62020000821615614136576e5d6af8dedb81196699c329225ee6040260801c5b62040000821615614155576d2216e584f5fa1ea926041bedfe980260801c5b62080000821615614172576b048a170391f7dc42444e8fa20260801c5b60008460020b131561418d57806000198161418957fe5b0490505b6401000000008106156141a15760016141a4565b60005b60ff16602082901c0192505050919050565b6000836001600160a01b0316856001600160a01b031611156141d6579293925b846001600160a01b0316866001600160a01b031611614201576141fa858585614863565b9050614271565b836001600160a01b0316866001600160a01b03161015614263576000614228878686614863565b905060006142378789866148c6565b9050806001600160801b0316826001600160801b031610614258578061425a565b815b92505050614271565b61426e8585846148c6565b90505b95945050505050565b614320816040516024018080602001828103825283818151815260200191508051906020019080838360005b838110156142be5781810151838201526020016142a6565b50505050905090810190601f1680156142eb5780820380516001836020036101000a031916815260200191505b5060408051601f198184030181529190526020810180516001600160e01b031663104c13eb60e21b1790529250614903915050565b50565b6040805160248082018490528251808303909101815260449091019091526020810180516001600160e01b031663f82c50f160e01b17905261432090614903565b604080516024810184905260448082018490528251808303909101815260649091019091526020810180516001600160e01b0316637b3338ad60e11b1790526143ac90614903565b5050565b60006113fe838361491a565b60006113fe83836149e0565b600061105784846001600160a01b038516614a2a565b815460009082106144205760405162461bcd60e51b81526004018080602001828103825260228152602001806159ed6022913960400191505060405180910390fd5b82600001828154811061442f57fe5b9060005260206000200154905092915050565b60006113fe8383614ac1565b8154600090819083106144925760405162461bcd60e51b8152600401808060200182810382526022815260200180615b696022913960400191505060405180910390fd5b60008460000184815481106144a357fe5b906000526020600020906002020190508060000154816001015492509250509250929050565b600082815260018401602052604081205482816145645760405162461bcd60e51b81526004018080602001828103825283818151815260200191508051906020019080838360005b83811015614529578181015183820152602001614511565b50505050905090810190601f1680156145565780820380516001836020036101000a031916815260200191505b509250505060405180910390fd5b5084600001600182038154811061457757fe5b9060005260206000209060020201600101549150509392505050565b604080516001600160a01b0385811660248301528481166044830152606480830185905283518084039091018152608490920183526020820180516001600160e01b03166323b872dd60e01b178152925182516000948594938a169392918291908083835b602083106146175780518252601f1990920191602091820191016145f8565b6001836020036101000a0380198251168184511680821785525050505050509050019150506000604051808303816000865af19150503d8060008114614679576040519150601f19603f3d011682016040523d82523d6000602084013e61467e565b606091505b50915091508180156146ac5750805115806146ac57508080602001905160208110156146a957600080fd5b50515b612641576040805162461bcd60e51b815260206004820152600360248201526229aa2360e91b604482015290519081900360640190fd5b60006146f7846001600160a01b0316613912565b61470357506001611057565b6000614811630a85bd0160e11b614718612fc4565b88878760405160240180856001600160a01b03168152602001846001600160a01b0316815260200183815260200180602001828103825283818151815260200191508051906020019080838360005b8381101561477f578181015183820152602001614767565b50505050905090810190601f1680156147ac5780820380516001836020036101000a031916815260200191505b5095505050505050604051602081830303815290604052906001600160e01b0319166020820180516001600160e01b038381831617835250505050604051806060016040528060328152602001615a0f603291396001600160a01b0388169190614b95565b9050600081806020019051602081101561482a57600080fd5b50516001600160e01b031916630a85bd0160e11b1492505050949350505050565b60009081526001919091016020526040902054151590565b6000826001600160a01b0316846001600160a01b03161115614883579192915b60006148a6856001600160a01b0316856001600160a01b0316600160601b613212565b90506142716148c184838888036001600160a01b0316613212565b614ba4565b6000826001600160a01b0316846001600160a01b031611156148e6579192915b6110576148c183600160601b8787036001600160a01b0316613212565b61432081614912614bba614bdb565b63ffffffff16565b600081815260018301602052604081205480156149d6578354600019808301919081019060009087908390811061494d57fe5b906000526020600020015490508087600001848154811061496a57fe5b60009182526020808320909101929092558281526001898101909252604090209084019055865487908061499a57fe5b60019003818190600052602060002001600090559055866001016000878152602001908152602001600020600090556001945050505050611401565b6000915050611401565b60006149ec838361484b565b614a2257508154600181810184556000848152602080822090930184905584548482528286019093526040902091909155611401565b506000611401565b600082815260018401602052604081205480614a8f57505060408051808201825283815260208082018481528654600181810189556000898152848120955160029093029095019182559151908201558654868452818801909252929091205561320b565b82856000016001830381548110614aa257fe5b906000526020600020906002020160010181905550600091505061320b565b600081815260018301602052604081205480156149d65783546000198083019190810190600090879083908110614af457fe5b9060005260206000209060020201905080876000018481548110614b1457fe5b600091825260208083208454600290930201918255600193840154918401919091558354825289830190526040902090840190558654879080614b5357fe5b60008281526020808220600260001990940193840201828155600190810183905592909355888152898201909252604082209190915594506114019350505050565b60606110578484600085614bde565b806001600160801b038116811461070557600080fd5b60006a636f6e736f6c652e6c6f679050600080835160208501845afa505050565b90565b606082471015614c1f5760405162461bcd60e51b8152600401808060200182810382526026815260200180615a8c6026913960400191505060405180910390fd5b614c2885613912565b614c79576040805162461bcd60e51b815260206004820152601d60248201527f416464726573733a2063616c6c20746f206e6f6e2d636f6e7472616374000000604482015290519081900360640190fd5b600080866001600160a01b031685876040518082805190602001908083835b60208310614cb75780518252601f199092019160209182019101614c98565b6001836020036101000a03801982511681845116808217855250505050505090500191505060006040518083038185875af1925050503d8060008114614d19576040519150601f19603f3d011682016040523d82523d6000602084013e614d1e565b606091505b5091509150614d2e828286614d39565b979650505050505050565b60608315614d4857508161320b565b825115614d585782518084602001fd5b60405162461bcd60e51b8152602060048201818152845160248401528451859391928392604401919085019080838360008315614529578181015183820152602001614511565b50805460018160011615610100020316600290046000825580601f10614dc55750614320565b601f01602090049060005260206000209081019061432091905b80821115614df35760008155600101614ddf565b5090565b8035610705816159a5565b805161ffff8116811461070557600080fd5b803562ffffff8116811461070557600080fd5b600060208284031215614e38578081fd5b813561320b816159a5565b60008060408385031215614e55578081fd5b8235614e60816159a5565b91506020830135614e70816159a5565b809150509250929050565b60008060008060808587031215614e90578182fd5b8435614e9b816159a5565b93506020850135614eab816159a5565b9250614eb960408601614e14565b91506060850135614ec9816159a5565b939692955090935050565b600080600060608486031215614ee8578081fd5b8335614ef3816159a5565b92506020840135614f03816159a5565b929592945050506040919091013590565b60008060008060808587031215614f29578182fd5b8435614f34816159a5565b93506020850135614f44816159a5565b925060408501359150606085013567ffffffffffffffff811115614f66578182fd5b8501601f81018713614f76578182fd5b8035614f89614f8482615957565b615933565b818152886020838501011115614f9d578384fd5b81602084016020830137908101602001929092525092959194509250565b60008060408385031215614fcd578182fd5b8235614fd8816159a5565b91506020830135614e70816159ba565b60008060408385031215614ffa578182fd5b8235615005816159a5565b946020939093013593505050565b600080600060608486031215615027578081fd5b8335615032816159a5565b9250602084013591506040840135615049816159a5565b809150509250925092565b60008060008060008060c0878903121561506c578384fd5b8635615077816159a5565b95506020870135945060408701359350606087013560ff8116811461509a578283fd5b9598949750929560808101359460a0909101359350915050565b600080602083850312156150c6578182fd5b823567ffffffffffffffff808211156150dd578384fd5b818501915085601f8301126150f0578384fd5b8135818111156150fe578485fd5b8660208083028501011115615111578485fd5b60209290920196919550909350505050565b600060208284031215615134578081fd5b81356001600160e01b03198116811461320b578182fd5b60006020828403121561515c578081fd5b813561320b816159c8565b600060208284031215615178578081fd5b815167ffffffffffffffff81111561518e578182fd5b8201601f8101841361519e578182fd5b80516151ac614f8482615957565b8181528560208385010111156151c0578384fd5b614271826020830160208601615979565b6000608082840312156151e2578081fd5b50919050565b600060a082840312156151e2578081fd5b600060c082840312156151e2578081fd5b6000818303608081121561521c578182fd5b6040516040810167ffffffffffffffff828210818311171561523a57fe5b81604052606084121561524b578485fd5b60a083019350818410818511171561525f57fe5b508260405284359250615271836159a5565b918252602084013591615283836159a5565b82606083015261529560408601614e14565b608083015281526152a860608501614df7565b6020820152949350505050565b600061016082840312156151e2578081fd5b6000602082840312156152d8578081fd5b813561320b816159d7565b600080604083850312156152f5578182fd5b8251615300816159d7565b6020840151909250614e70816159d7565b600080600080600060a08688031215615328578283fd5b8551615333816159d7565b8095505060208601519350604086015192506060860151615353816159d7565b6080870151909250615364816159d7565b809150509295509295909350565b600080600080600080600060e0888a03121561538c578485fd5b8751615397816159a5565b60208901519097506153a8816159c8565b95506153b660408901614e02565b94506153c460608901614e02565b93506153d260808901614e02565b925060a088015163ffffffff811681146153ea578182fd5b60c08901519092506153fb816159ba565b8091505092959891949750929550565b60006020828403121561541c578081fd5b6113fe82614e14565b600060208284031215615436578081fd5b5035919050565b6000806040838503121561544f578182fd5b823591506020830135614e70816159a5565b60008060408385031215615473578182fd5b505080516020909101519092909150565b60008060008060608587031215615499578182fd5b8435935060208501359250604085013567ffffffffffffffff808211156154be578384fd5b818701915087601f8301126154d1578384fd5b8135818111156154df578485fd5b8860208285010111156154f0578485fd5b95989497505060200194505050565b60008151808452615517816020860160208601615979565b601f01601f19169290920160200192915050565b60020b9052565b6001600160801b03169052565b6000828483379101908152919050565b6001600160a01b0391909116815260200190565b600060018060a01b03871682528560020b60208301528460020b60408301526001600160801b038416606083015260a06080830152614d2e60a08301846154ff565b6001600160a01b03959095168552600293840b60208601529190920b60408401526001600160801b03918216606084015216608082015260a00190565b6001600160a01b039390931683526001600160801b03918216602084015216604082015260600190565b6000602080830181845280855180835260408601915060408482028701019250838701855b8281101561565f57603f1988860301845261564d8583516154ff565b94509285019290850190600101615631565b5092979650505050505050565b901515815260200190565b90815260200190565b6001600160a01b03929092168252602082015260400190565b600293840b81529190920b60208201526001600160801b03909116604082015260600190565b6000602082526113fe60208301846154ff565b6020808252600c908201526b139bdd08185c1c1c9bdd995960a21b604082015260600190565b6020808252602c908201527f4552433732313a20617070726f76656420717565727920666f72206e6f6e657860408201526b34b9ba32b73a103a37b5b2b760a11b606082015260800190565b602080825260149082015273507269636520736c69707061676520636865636b60601b604082015260600190565b60208082526010908201526f125b9d985b1a59081d1bdad95b88125160821b604082015260600190565b6020808252600b908201526a139bdd0818db19585c995960aa1b604082015260600190565b815180516001600160a01b03908116835260208083015182168185015260409283015162ffffff1692840192909252920151909116606082015260800190565b6001600160801b039390931683526020830191909152604082015260600190565b9384526001600160801b039290921660208401526040830152606082015260800190565b918252602082015260400190565b6001600160601b038d1681526001600160a01b038c811660208301528b811660408301528a16606082015262ffffff89166080820152600288900b60a082015261018081016158a660c083018961552b565b6158b360e0830188615532565b85610100830152846101208301526158cf610140830185615532565b6158dd610160830184615532565b9d9c50505050505050505050505050565b6000808335601e19843603018112615904578283fd5b83018035915067ffffffffffffffff82111561591e578283fd5b6020019150368190038213156138c957600080fd5b60405181810167ffffffffffffffff8111828210171561594f57fe5b604052919050565b600067ffffffffffffffff82111561596b57fe5b50601f01601f191660200190565b60005b8381101561599457818101518382015260200161597c565b838111156127e15750506000910152565b6001600160a01b038116811461432057600080fd5b801515811461432057600080fd5b8060020b811461432057600080fd5b6001600160801b038116811461432057600080fdfe456e756d657261626c655365743a20696e646578206f7574206f6620626f756e64734552433732313a207472616e7366657220746f206e6f6e20455243373231526563656976657220696d706c656d656e7465724552433732315065726d69743a20617070726f76616c20746f2063757272656e74206f776e65724552433732313a207472616e7366657220746f20746865207a65726f2061646472657373416464726573733a20696e73756666696369656e742062616c616e636520666f722063616c6c4552433732313a206f70657261746f7220717565727920666f72206e6f6e6578697374656e7420746f6b656e4552433732313a20617070726f76652063616c6c6572206973206e6f74206f776e6572206e6f7220617070726f76656420666f7220616c6c4552433732313a2062616c616e636520717565727920666f7220746865207a65726f20616464726573734552433732313a206f776e657220717565727920666f72206e6f6e6578697374656e7420746f6b656e456e756d657261626c654d61703a20696e646578206f7574206f6620626f756e64734552433732313a207472616e73666572206f6620746f6b656e2074686174206973206e6f74206f776e4552433732313a20617070726f76616c20746f2063757272656e74206f776e65724552433732313a207472616e736665722063616c6c6572206973206e6f74206f776e6572206e6f7220617070726f766564a26469706673582212207c3c454c6b559bfddf491e08c2a55fcabd462d4add93e8f5c4562caf13c6b99764736f6c63430007060033",
  "linkReferences": {},
  "deployedLinkReferences": {}
}